{
  "contractName": "EcommerceStore",
  "abi": [
    {
      "inputs": [],
      "payable": false,
      "stateMutability": "nonpayable",
      "type": "constructor"
    },
    {
      "anonymous": false,
      "inputs": [
        {
          "indexed": false,
          "internalType": "uint256",
          "name": "_productId",
          "type": "uint256"
        },
        {
          "indexed": false,
          "internalType": "string",
          "name": "_name",
          "type": "string"
        },
        {
          "indexed": false,
          "internalType": "string",
          "name": "_category",
          "type": "string"
        },
        {
          "indexed": false,
          "internalType": "string",
          "name": "_imageLink",
          "type": "string"
        },
        {
          "indexed": false,
          "internalType": "string",
          "name": "_descLink",
          "type": "string"
        },
        {
          "indexed": false,
          "internalType": "uint256",
          "name": "_auctionStartTime",
          "type": "uint256"
        },
        {
          "indexed": false,
          "internalType": "uint256",
          "name": "_auctionEndTime",
          "type": "uint256"
        },
        {
          "indexed": false,
          "internalType": "uint256",
          "name": "_startPrice",
          "type": "uint256"
        },
        {
          "indexed": false,
          "internalType": "uint256",
          "name": "_productCondition",
          "type": "uint256"
        }
      ],
      "name": "NewProduct",
      "type": "event"
    },
    {
      "anonymous": false,
      "inputs": [
        {
          "indexed": false,
          "internalType": "uint256",
          "name": "productid",
          "type": "uint256"
        },
        {
          "indexed": false,
          "internalType": "bytes32",
          "name": "bidId",
          "type": "bytes32"
        },
        {
          "indexed": false,
          "internalType": "uint256",
          "name": "idealPrice",
          "type": "uint256"
        },
        {
          "indexed": false,
          "internalType": "uint256",
          "name": "price",
          "type": "uint256"
        },
        {
          "indexed": false,
          "internalType": "uint256",
          "name": "refund",
          "type": "uint256"
        }
      ],
      "name": "revealEvent",
      "type": "event"
    },
    {
      "constant": true,
      "inputs": [],
      "name": "productIndex",
      "outputs": [
        {
          "internalType": "uint256",
          "name": "",
          "type": "uint256"
        }
      ],
      "payable": false,
      "stateMutability": "view",
      "type": "function"
    },
    {
      "constant": true,
      "inputs": [
        {
          "internalType": "uint256",
          "name": "",
          "type": "uint256"
        }
      ],
      "name": "productToEscrow",
      "outputs": [
        {
          "internalType": "address",
          "name": "",
          "type": "address"
        }
      ],
      "payable": false,
      "stateMutability": "view",
      "type": "function"
    },
    {
      "constant": true,
      "inputs": [],
      "name": "totalDeposit",
      "outputs": [
        {
          "internalType": "uint256",
          "name": "",
          "type": "uint256"
        }
      ],
      "payable": false,
      "stateMutability": "view",
      "type": "function"
    },
    {
      "constant": true,
      "inputs": [],
      "name": "hello",
      "outputs": [
        {
          "internalType": "string",
          "name": "",
          "type": "string"
        }
      ],
      "payable": false,
      "stateMutability": "pure",
      "type": "function"
    },
    {
      "constant": true,
      "inputs": [],
      "name": "nowtime",
      "outputs": [
        {
          "internalType": "uint256",
          "name": "",
          "type": "uint256"
        }
      ],
      "payable": false,
      "stateMutability": "view",
      "type": "function"
    },
    {
      "constant": false,
      "inputs": [],
      "name": "testvalue",
      "outputs": [
        {
          "internalType": "uint256",
          "name": "",
          "type": "uint256"
        }
      ],
      "payable": true,
      "stateMutability": "payable",
      "type": "function"
    },
    {
      "constant": false,
      "inputs": [
        {
          "internalType": "string",
          "name": "_name",
          "type": "string"
        },
        {
          "internalType": "string",
          "name": "_category",
          "type": "string"
        },
        {
          "internalType": "string",
          "name": "_imageLink",
          "type": "string"
        },
        {
          "internalType": "string",
          "name": "_descLink",
          "type": "string"
        },
        {
          "internalType": "uint256",
          "name": "_startTime",
          "type": "uint256"
        },
        {
          "internalType": "uint256",
          "name": "_endTime",
          "type": "uint256"
        },
        {
          "internalType": "uint256",
          "name": "_startPrice",
          "type": "uint256"
        },
        {
          "internalType": "uint256",
          "name": "condition",
          "type": "uint256"
        }
      ],
      "name": "addProductToStore",
      "outputs": [],
      "payable": true,
      "stateMutability": "payable",
      "type": "function"
    },
    {
      "constant": true,
      "inputs": [
        {
          "internalType": "uint256",
          "name": "_productId",
          "type": "uint256"
        }
      ],
      "name": "getAccountOfId",
      "outputs": [
        {
          "internalType": "address",
          "name": "",
          "type": "address"
        }
      ],
      "payable": false,
      "stateMutability": "view",
      "type": "function"
    },
    {
      "constant": true,
      "inputs": [
        {
          "internalType": "uint256",
          "name": "value",
          "type": "uint256"
        },
        {
          "internalType": "string",
          "name": "secret",
          "type": "string"
        }
      ],
      "name": "testHash",
      "outputs": [
        {
          "internalType": "bytes32",
          "name": "",
          "type": "bytes32"
        }
      ],
      "payable": false,
      "stateMutability": "pure",
      "type": "function"
    },
    {
      "constant": false,
      "inputs": [
        {
          "internalType": "uint256",
          "name": "_productId",
          "type": "uint256"
        },
        {
          "internalType": "bytes32",
          "name": "_bytesHash",
          "type": "bytes32"
        }
      ],
      "name": "bid",
      "outputs": [],
      "payable": true,
      "stateMutability": "payable",
      "type": "function"
    },
    {
      "constant": true,
      "inputs": [
        {
          "internalType": "uint256",
          "name": "_productId",
          "type": "uint256"
        },
        {
          "internalType": "uint256",
          "name": "_idealPrice",
          "type": "uint256"
        },
        {
          "internalType": "string",
          "name": "_secret",
          "type": "string"
        }
      ],
      "name": "getBidById",
      "outputs": [
        {
          "internalType": "uint256",
          "name": "",
          "type": "uint256"
        },
        {
          "internalType": "uint256",
          "name": "",
          "type": "uint256"
        },
        {
          "internalType": "bool",
          "name": "",
          "type": "bool"
        },
        {
          "internalType": "address",
          "name": "",
          "type": "address"
        }
      ],
      "payable": false,
      "stateMutability": "view",
      "type": "function"
    },
    {
      "constant": true,
      "inputs": [],
      "name": "numberOfItems",
      "outputs": [
        {
          "internalType": "uint256",
          "name": "",
          "type": "uint256"
        }
      ],
      "payable": false,
      "stateMutability": "view",
      "type": "function"
    },
    {
      "constant": false,
      "inputs": [
        {
          "internalType": "uint256",
          "name": "_productId",
          "type": "uint256"
        },
        {
          "internalType": "uint256",
          "name": "_idealPrice",
          "type": "uint256"
        },
        {
          "internalType": "string",
          "name": "_secret",
          "type": "string"
        }
      ],
      "name": "revealBid",
      "outputs": [],
      "payable": false,
      "stateMutability": "nonpayable",
      "type": "function"
    },
    {
      "constant": true,
      "inputs": [
        {
          "internalType": "uint256",
          "name": "_productId",
          "type": "uint256"
        }
      ],
      "name": "getHighestBidInfo",
      "outputs": [
        {
          "internalType": "address",
          "name": "",
          "type": "address"
        },
        {
          "internalType": "uint256",
          "name": "",
          "type": "uint256"
        },
        {
          "internalType": "uint256",
          "name": "",
          "type": "uint256"
        },
        {
          "internalType": "uint256",
          "name": "",
          "type": "uint256"
        }
      ],
      "payable": false,
      "stateMutability": "view",
      "type": "function"
    },
    {
      "constant": true,
      "inputs": [
        {
          "internalType": "uint256",
          "name": "_productId",
          "type": "uint256"
        }
      ],
      "name": "getProductById",
      "outputs": [
        {
          "internalType": "uint256",
          "name": "",
          "type": "uint256"
        },
        {
          "internalType": "string",
          "name": "",
          "type": "string"
        },
        {
          "internalType": "string",
          "name": "",
          "type": "string"
        },
        {
          "internalType": "string",
          "name": "",
          "type": "string"
        },
        {
          "internalType": "string",
          "name": "",
          "type": "string"
        },
        {
          "internalType": "uint256",
          "name": "",
          "type": "uint256"
        },
        {
          "internalType": "uint256",
          "name": "",
          "type": "uint256"
        },
        {
          "internalType": "uint256",
          "name": "",
          "type": "uint256"
        },
        {
          "internalType": "uint256",
          "name": "",
          "type": "uint256"
        },
        {
          "internalType": "address",
          "name": "",
          "type": "address"
        },
        {
          "internalType": "uint256",
          "name": "",
          "type": "uint256"
        }
      ],
      "payable": false,
      "stateMutability": "view",
      "type": "function"
    },
    {
      "constant": true,
      "inputs": [
        {
          "internalType": "uint256",
          "name": "_productId",
          "type": "uint256"
        }
      ],
      "name": "totalBids",
      "outputs": [
        {
          "internalType": "uint256",
          "name": "",
          "type": "uint256"
        }
      ],
      "payable": false,
      "stateMutability": "view",
      "type": "function"
    },
    {
      "constant": false,
      "inputs": [
        {
          "internalType": "uint256",
          "name": "_productId",
          "type": "uint256"
        }
      ],
      "name": "finalizeAuction",
      "outputs": [],
      "payable": false,
      "stateMutability": "nonpayable",
      "type": "function"
    },
    {
      "constant": true,
      "inputs": [
        {
          "internalType": "uint256",
          "name": "_productId",
          "type": "uint256"
        }
      ],
      "name": "escrowAddressForProduct",
      "outputs": [
        {
          "internalType": "address",
          "name": "",
          "type": "address"
        }
      ],
      "payable": false,
      "stateMutability": "view",
      "type": "function"
    },
    {
      "constant": true,
      "inputs": [
        {
          "internalType": "uint256",
          "name": "_productId",
          "type": "uint256"
        }
      ],
      "name": "getEscrowInfo",
      "outputs": [
        {
          "internalType": "address",
          "name": "",
          "type": "address"
        },
        {
          "internalType": "address",
          "name": "",
          "type": "address"
        },
        {
          "internalType": "address",
          "name": "",
          "type": "address"
        },
        {
          "internalType": "bool",
          "name": "",
          "type": "bool"
        },
        {
          "internalType": "uint256",
          "name": "",
          "type": "uint256"
        },
        {
          "internalType": "uint256",
          "name": "",
          "type": "uint256"
        }
      ],
      "payable": false,
      "stateMutability": "view",
      "type": "function"
    },
    {
      "constant": false,
      "inputs": [
        {
          "internalType": "uint256",
          "name": "_productId",
          "type": "uint256"
        }
      ],
      "name": "releaseAmountToSeller",
      "outputs": [],
      "payable": true,
      "stateMutability": "payable",
      "type": "function"
    },
    {
      "constant": false,
      "inputs": [
        {
          "internalType": "uint256",
          "name": "_productId",
          "type": "uint256"
        }
      ],
      "name": "refundAmountToBuyer",
      "outputs": [],
      "payable": true,
      "stateMutability": "payable",
      "type": "function"
    },
    {
      "constant": false,
      "inputs": [
        {
          "internalType": "uint256",
          "name": "_productId",
          "type": "uint256"
        }
      ],
      "name": "refundDeposit",
      "outputs": [],
      "payable": true,
      "stateMutability": "payable",
      "type": "function"
    }
  ],
  "bytecode": "0x608060405234801561001057600080fd5b506000808190555060006001819055506145dd8061002f6000396000f3fe6080604052600436106101355760003560e01c80639a3a7c69116100ab578063cc352db71161006f578063cc352db714610d49578063e52071e414610d77578063e808386314610e07578063ea1591bb14610e42578063f2c8a32714610e7a578063f6153ccd14610ea557610135565b80639a3a7c6914610836578063a489d5d714610864578063a508b95514610940578063b4392fd614610be9578063c897d5a614610d1e57610135565b806347e6afed116100fd57806347e6afed146105645780635cd96f0d146105df5780636de0de7e146106c5578063842296d4146106f35780638646405e1461071e57806399244d1a1461081857610135565b806319ff1d211461013a57806328e3d190146101ca5780633b301302146102195780633f70c2b4146102945780634389754a146104e9575b600080fd5b34801561014657600080fd5b5061014f610ed0565b6040518080602001828103825283818151815260200191508051906020019080838360005b8381101561018f578082015181840152602081019050610174565b50505050905090810190601f1680156101bc5780820380516001836020036101000a031916815260200191505b509250505060405180910390f35b3480156101d657600080fd5b50610203600480360360208110156101ed57600080fd5b8101908080359060200190929190505050610f0d565b6040518082815260200191505060405180910390f35b34801561022557600080fd5b506102526004803603602081101561023c57600080fd5b8101908080359060200190929190505050611339565b604051808273ffffffffffffffffffffffffffffffffffffffff1673ffffffffffffffffffffffffffffffffffffffff16815260200191505060405180910390f35b3480156102a057600080fd5b506102cd600480360360208110156102b757600080fd5b8101908080359060200190929190505050611376565b604051808c8152602001806020018060200180602001806020018b81526020018a81526020018981526020018881526020018773ffffffffffffffffffffffffffffffffffffffff1673ffffffffffffffffffffffffffffffffffffffff16815260200186815260200185810385528f818151815260200191508051906020019080838360005b8381101561036f578082015181840152602081019050610354565b50505050905090810190601f16801561039c5780820380516001836020036101000a031916815260200191505b5085810384528e818151815260200191508051906020019080838360005b838110156103d55780820151818401526020810190506103ba565b50505050905090810190601f1680156104025780820380516001836020036101000a031916815260200191505b5085810383528d818151815260200191508051906020019080838360005b8381101561043b578082015181840152602081019050610420565b50505050905090810190601f1680156104685780820380516001836020036101000a031916815260200191505b5085810382528c818151815260200191508051906020019080838360005b838110156104a1578082015181840152602081019050610486565b50505050905090810190601f1680156104ce5780820380516001836020036101000a031916815260200191505b509f5050505050505050505050505050505060405180910390f35b3480156104f557600080fd5b506105226004803603602081101561050c57600080fd5b810190808035906020019092919050505061181b565b604051808273ffffffffffffffffffffffffffffffffffffffff1673ffffffffffffffffffffffffffffffffffffffff16815260200191505060405180910390f35b34801561057057600080fd5b5061059d6004803603602081101561058757600080fd5b8101908080359060200190929190505050611858565b604051808273ffffffffffffffffffffffffffffffffffffffff1673ffffffffffffffffffffffffffffffffffffffff16815260200191505060405180910390f35b3480156105eb57600080fd5b506106af6004803603604081101561060257600080fd5b81019080803590602001909291908035906020019064010000000081111561062957600080fd5b82018360208201111561063b57600080fd5b8035906020019184600183028401116401000000008311171561065d57600080fd5b91908080601f016020809104026020016040519081016040528093929190818152602001838380828437600081840152601f19601f82011690508083019250505050505050919291929050505061188b565b6040518082815260200191505060405180910390f35b6106f1600480360360208110156106db57600080fd5b81019080803590602001909291905050506119b1565b005b3480156106ff57600080fd5b50610708611e31565b6040518082815260200191505060405180910390f35b34801561072a57600080fd5b506107576004803603602081101561074157600080fd5b8101908080359060200190929190505050611e3a565b604051808773ffffffffffffffffffffffffffffffffffffffff1673ffffffffffffffffffffffffffffffffffffffff1681526020018673ffffffffffffffffffffffffffffffffffffffff1673ffffffffffffffffffffffffffffffffffffffff1681526020018573ffffffffffffffffffffffffffffffffffffffff1673ffffffffffffffffffffffffffffffffffffffff16815260200184151515158152602001838152602001828152602001965050505050505060405180910390f35b610820611f44565b6040518082815260200191505060405180910390f35b6108626004803603602081101561084c57600080fd5b8101908080359060200190929190505050611f4c565b005b34801561087057600080fd5b5061093e6004803603606081101561088757600080fd5b810190808035906020019092919080359060200190929190803590602001906401000000008111156108b857600080fd5b8201836020820111156108ca57600080fd5b803590602001918460018302840111640100000000831117156108ec57600080fd5b91908080601f016020809104026020016040519081016040528093929190818152602001838380828437600081840152601f19601f820116905080830192505050505050509192919290505050612049565b005b610be7600480360361010081101561095757600080fd5b810190808035906020019064010000000081111561097457600080fd5b82018360208201111561098657600080fd5b803590602001918460018302840111640100000000831117156109a857600080fd5b91908080601f016020809104026020016040519081016040528093929190818152602001838380828437600081840152601f19601f82011690508083019250505050505050919291929080359060200190640100000000811115610a0b57600080fd5b820183602082011115610a1d57600080fd5b80359060200191846001830284011164010000000083111715610a3f57600080fd5b91908080601f016020809104026020016040519081016040528093929190818152602001838380828437600081840152601f19601f82011690508083019250505050505050919291929080359060200190640100000000811115610aa257600080fd5b820183602082011115610ab457600080fd5b80359060200191846001830284011164010000000083111715610ad657600080fd5b91908080601f016020809104026020016040519081016040528093929190818152602001838380828437600081840152601f19601f82011690508083019250505050505050919291929080359060200190640100000000811115610b3957600080fd5b820183602082011115610b4b57600080fd5b80359060200191846001830284011164010000000083111715610b6d57600080fd5b91908080601f016020809104026020016040519081016040528093929190818152602001838380828437600081840152601f19601f82011690508083019250505050505050919291929080359060200190929190803590602001909291908035906020019092919080359060200190929190505050612575565b005b348015610bf557600080fd5b50610cc360048036036060811015610c0c57600080fd5b81019080803590602001909291908035906020019092919080359060200190640100000000811115610c3d57600080fd5b820183602082011115610c4f57600080fd5b80359060200191846001830284011164010000000083111715610c7157600080fd5b91908080601f016020809104026020016040519081016040528093929190818152602001838380828437600081840152601f19601f820116905080830192505050505050509192919290505050612853565b60405180858152602001848152602001831515151581526020018273ffffffffffffffffffffffffffffffffffffffff1673ffffffffffffffffffffffffffffffffffffffff16815260200194505050505060405180910390f35b348015610d2a57600080fd5b50610d33612a78565b6040518082815260200191505060405180910390f35b610d7560048036036020811015610d5f57600080fd5b8101908080359060200190929190505050612a7e565b005b348015610d8357600080fd5b50610db060048036036020811015610d9a57600080fd5b8101908080359060200190929190505050612b7b565b604051808573ffffffffffffffffffffffffffffffffffffffff1673ffffffffffffffffffffffffffffffffffffffff16815260200184815260200183815260200182815260200194505050505060405180910390f35b348015610e1357600080fd5b50610e4060048036036020811015610e2a57600080fd5b8101908080359060200190929190505050612fc6565b005b610e7860048036036040811015610e5857600080fd5b81019080803590602001909291908035906020019092919050505061331e565b005b348015610e8657600080fd5b50610e8f6135a8565b6040518082815260200191505060405180910390f35b348015610eb157600080fd5b50610eba6135b0565b6040518082815260200191505060405180910390f35b60606040518060400160405280600b81526020017f68656c6c6f20776f726c64000000000000000000000000000000000000000000815250905090565b6000806003600084815260200190815260200160002060009054906101000a900473ffffffffffffffffffffffffffffffffffffffff169050610f4e6135b6565b600260008373ffffffffffffffffffffffffffffffffffffffff1673ffffffffffffffffffffffffffffffffffffffff1681526020019081526020016000206000858152602001908152602001600020604051806101c001604052908160008201548152602001600182018054600181600116156101000203166002900480601f01602080910402602001604051908101604052809291908181526020018280546001816001161561010002031660029004801561104d5780601f106110225761010080835404028352916020019161104d565b820191906000526020600020905b81548152906001019060200180831161103057829003601f168201915b50505050508152602001600282018054600181600116156101000203166002900480601f0160208091040260200160405190810160405280929190818152602001828054600181600116156101000203166002900480156110ef5780601f106110c4576101008083540402835291602001916110ef565b820191906000526020600020905b8154815290600101906020018083116110d257829003601f168201915b50505050508152602001600382018054600181600116156101000203166002900480601f0160208091040260200160405190810160405280929190818152602001828054600181600116156101000203166002900480156111915780601f1061116657610100808354040283529160200191611191565b820191906000526020600020905b81548152906001019060200180831161117457829003601f168201915b50505050508152602001600482018054600181600116156101000203166002900480601f0160208091040260200160405190810160405280929190818152602001828054600181600116156101000203166002900480156112335780601f1061120857610100808354040283529160200191611233565b820191906000526020600020905b81548152906001019060200180831161121657829003601f168201915b505050505081526020016005820154815260200160068201548152602001600782015481526020016008820160009054906101000a900460ff16600281111561127857fe5b600281111561128357fe5b81526020016008820160019054906101000a900460ff1660018111156112a557fe5b60018111156112b057fe5b815260200160098201548152602001600b820160009054906101000a900473ffffffffffffffffffffffffffffffffffffffff1673ffffffffffffffffffffffffffffffffffffffff1673ffffffffffffffffffffffffffffffffffffffff168152602001600c8201548152602001600d82015481525050905080610140015192505050919050565b60006003600083815260200190815260200160002060009054906101000a900473ffffffffffffffffffffffffffffffffffffffff169050919050565b60006060806060806000806000806000806000600360008e815260200190815260200160002060009054906101000a900473ffffffffffffffffffffffffffffffffffffffff1690506113c76135b6565b600260008373ffffffffffffffffffffffffffffffffffffffff1673ffffffffffffffffffffffffffffffffffffffff16815260200190815260200160002060008f8152602001908152602001600020604051806101c001604052908160008201548152602001600182018054600181600116156101000203166002900480601f0160208091040260200160405190810160405280929190818152602001828054600181600116156101000203166002900480156114c65780601f1061149b576101008083540402835291602001916114c6565b820191906000526020600020905b8154815290600101906020018083116114a957829003601f168201915b50505050508152602001600282018054600181600116156101000203166002900480601f0160208091040260200160405190810160405280929190818152602001828054600181600116156101000203166002900480156115685780601f1061153d57610100808354040283529160200191611568565b820191906000526020600020905b81548152906001019060200180831161154b57829003601f168201915b50505050508152602001600382018054600181600116156101000203166002900480601f01602080910402602001604051908101604052809291908181526020018280546001816001161561010002031660029004801561160a5780601f106115df5761010080835404028352916020019161160a565b820191906000526020600020905b8154815290600101906020018083116115ed57829003601f168201915b50505050508152602001600482018054600181600116156101000203166002900480601f0160208091040260200160405190810160405280929190818152602001828054600181600116156101000203166002900480156116ac5780601f10611681576101008083540402835291602001916116ac565b820191906000526020600020905b81548152906001019060200180831161168f57829003601f168201915b505050505081526020016005820154815260200160068201548152602001600782015481526020016008820160009054906101000a900460ff1660028111156116f157fe5b60028111156116fc57fe5b81526020016008820160019054906101000a900460ff16600181111561171e57fe5b600181111561172957fe5b815260200160098201548152602001600b820160009054906101000a900473ffffffffffffffffffffffffffffffffffffffff1673ffffffffffffffffffffffffffffffffffffffff1673ffffffffffffffffffffffffffffffffffffffff168152602001600c8201548152602001600d820154815250509050806000015181602001518260400151836060015184608001518560a001518660c001518760e0015188610100015160028111156117dc57fe5b8961016001518a61018001518999508898508797508696509c509c509c509c509c509c509c509c509c509c509c50505091939597999b90929496989a50565b60006004600083815260200190815260200160002060009054906101000a900473ffffffffffffffffffffffffffffffffffffffff169050919050565b60046020528060005260406000206000915054906101000a900473ffffffffffffffffffffffffffffffffffffffff1681565b6000606083836040516020018083815260200182805190602001908083835b602083106118cd57805182526020820191506020810190506020830392506118aa565b6001836020036101000a03801982511681845116808217855250505050505090500192505050604051602081830303815290604052905060006002826040518082805190602001908083835b6020831061193c5780518252602082019150602081019050602083039250611919565b6001836020036101000a038019825116818451168082178552505050505050905001915050602060405180830381855afa15801561197e573d6000803e3d6000fd5b5050506040513d602081101561199357600080fd5b81019080805190602001909291905050509050809250505092915050565b60006003600083815260200190815260200160002060009054906101000a900473ffffffffffffffffffffffffffffffffffffffff1690506119f16135b6565b600260008373ffffffffffffffffffffffffffffffffffffffff1673ffffffffffffffffffffffffffffffffffffffff1681526020019081526020016000206000848152602001908152602001600020604051806101c001604052908160008201548152602001600182018054600181600116156101000203166002900480601f016020809104026020016040519081016040528092919081815260200182805460018160011615610100020316600290048015611af05780601f10611ac557610100808354040283529160200191611af0565b820191906000526020600020905b815481529060010190602001808311611ad357829003601f168201915b50505050508152602001600282018054600181600116156101000203166002900480601f016020809104026020016040519081016040528092919081815260200182805460018160011615610100020316600290048015611b925780601f10611b6757610100808354040283529160200191611b92565b820191906000526020600020905b815481529060010190602001808311611b7557829003601f168201915b50505050508152602001600382018054600181600116156101000203166002900480601f016020809104026020016040519081016040528092919081815260200182805460018160011615610100020316600290048015611c345780601f10611c0957610100808354040283529160200191611c34565b820191906000526020600020905b815481529060010190602001808311611c1757829003601f168201915b50505050508152602001600482018054600181600116156101000203166002900480601f016020809104026020016040519081016040528092919081815260200182805460018160011615610100020316600290048015611cd65780601f10611cab57610100808354040283529160200191611cd6565b820191906000526020600020905b815481529060010190602001808311611cb957829003601f168201915b505050505081526020016005820154815260200160068201548152602001600782015481526020016008820160009054906101000a900460ff166002811115611d1b57fe5b6002811115611d2657fe5b81526020016008820160019054906101000a900460ff166001811115611d4857fe5b6001811115611d5357fe5b815260200160098201548152602001600b820160009054906101000a900473ffffffffffffffffffffffffffffffffffffffff1673ffffffffffffffffffffffffffffffffffffffff1673ffffffffffffffffffffffffffffffffffffffff168152602001600c8201548152602001600d8201548152505090508060e001516001600082825403925050819055508173ffffffffffffffffffffffffffffffffffffffff166108fc8260e001519081150290604051600060405180830381858888f19350505050158015611e2b573d6000803e3d6000fd5b50505050565b60008054905090565b60008060008060008060006004600089815260200190815260200160002060009054906101000a900473ffffffffffffffffffffffffffffffffffffffff1690508073ffffffffffffffffffffffffffffffffffffffff1663f3d259046040518163ffffffff1660e01b815260040160c06040518083038186803b158015611ec157600080fd5b505afa158015611ed5573d6000803e3d6000fd5b505050506040513d60c0811015611eeb57600080fd5b810190808051906020019092919080519060200190929190805190602001909291908051906020019092919080519060200190929190805190602001909291905050509650965096509650965096505091939550919395565b600034905090565b60006004600083815260200190815260200160002060009054906101000a900473ffffffffffffffffffffffffffffffffffffffff1690508073ffffffffffffffffffffffffffffffffffffffff166358aad10b336040518263ffffffff1660e01b8152600401808273ffffffffffffffffffffffffffffffffffffffff1673ffffffffffffffffffffffffffffffffffffffff168152602001915050600060405180830381600087803b15801561200357600080fd5b505af1158015612017573d6000803e3d6000fd5b5050505060008173ffffffffffffffffffffffffffffffffffffffff1631141561204557612044826119b1565b5b5050565b6000600260006003600087815260200190815260200160002060009054906101000a900473ffffffffffffffffffffffffffffffffffffffff1673ffffffffffffffffffffffffffffffffffffffff1673ffffffffffffffffffffffffffffffffffffffff16815260200190815260200160002060008581526020019081526020016000209050806006015442116120e057600080fd5b6000600284846040516020018083815260200182805190602001908083835b6020831061212257805182526020820191506020810190506020830392506120ff565b6001836020036101000a038019825116818451168082178552505050505050905001925050506040516020818303038152906040526040518082805190602001908083835b6020831061218a5780518252602082019150602081019050602083039250612167565b6001836020036101000a038019825116818451168082178552505050505050905001915050602060405180830381855afa1580156121cc573d6000803e3d6000fd5b5050506040513d60208110156121e157600080fd5b81019080805190602001909291905050509050600082600a0160003373ffffffffffffffffffffffffffffffffffffffff1673ffffffffffffffffffffffffffffffffffffffff16815260200190815260200160002060008381526020019081526020016000209050600073ffffffffffffffffffffffffffffffffffffffff168160020160019054906101000a900473ffffffffffffffffffffffffffffffffffffffff1673ffffffffffffffffffffffffffffffffffffffff16116122a757600080fd5b8060020160009054906101000a900460ff16156122c357600080fd5b60018160020160006101000a81548160ff0219169083151502179055506000816001015490506000809050600087905080831015612303578291506124be565b85600c015481111561249e57600073ffffffffffffffffffffffffffffffffffffffff1686600b0160009054906101000a900473ffffffffffffffffffffffffffffffffffffffff1673ffffffffffffffffffffffffffffffffffffffff1614156123cb573386600b0160006101000a81548173ffffffffffffffffffffffffffffffffffffffff021916908373ffffffffffffffffffffffffffffffffffffffff1602179055508086600c0181905550856007015486600d01819055508083039150612499565b85600b0160009054906101000a900473ffffffffffffffffffffffffffffffffffffffff1673ffffffffffffffffffffffffffffffffffffffff166108fc87600c01549081150290604051600060405180830381858888f19350505050158015612439573d6000803e3d6000fd5b5085600c015486600d01819055508086600c01819055503386600b0160006101000a81548173ffffffffffffffffffffffffffffffffffffffff021916908373ffffffffffffffffffffffffffffffffffffffff16021790555080830391505b6124bd565b85600d01548111156124b8578086600d01819055506124bc565b8291505b5b5b7fe1dc1b1a81fae3888ca5e8503053beaca3e7146e567c4d2ab34c7259baba98a8898685876001015486604051808681526020018581526020018481526020018381526020018281526020019550505050505060405180910390a1600082111561256a573373ffffffffffffffffffffffffffffffffffffffff166108fc839081150290604051600060405180830381858888f19350505050158015612568573d6000803e3d6000fd5b505b505050505050505050565b82841061258157600080fd5b600160008082825401925050819055506125996135b6565b604051806101c0016040528060005481526020018a8152602001898152602001888152602001878152602001868152602001858152602001848152602001600060028111156125e457fe5b81526020018360018111156125f557fe5b600181111561260057fe5b815260200160008152602001600073ffffffffffffffffffffffffffffffffffffffff168152602001600081526020016000815250905080600260003373ffffffffffffffffffffffffffffffffffffffff1673ffffffffffffffffffffffffffffffffffffffff1681526020019081526020016000206000805481526020019081526020016000206000820151816000015560208201518160010190805190602001906126af929190613651565b5060408201518160020190805190602001906126cc929190613651565b5060608201518160030190805190602001906126e9929190613651565b506080820151816004019080519060200190612706929190613651565b5060a0820151816005015560c0820151816006015560e082015181600701556101008201518160080160006101000a81548160ff0219169083600281111561274a57fe5b02179055506101208201518160080160016101000a81548160ff0219169083600181111561277457fe5b0217905550610140820151816009015561016082015181600b0160006101000a81548173ffffffffffffffffffffffffffffffffffffffff021916908373ffffffffffffffffffffffffffffffffffffffff16021790555061018082015181600c01556101a082015181600d015590505033600360008054815260200190815260200160002060006101000a81548173ffffffffffffffffffffffffffffffffffffffff021916908373ffffffffffffffffffffffffffffffffffffffff16021790555082600160008282540192505081905550505050505050505050565b600080600080600060026000600360008b815260200190815260200160002060009054906101000a900473ffffffffffffffffffffffffffffffffffffffff1673ffffffffffffffffffffffffffffffffffffffff1673ffffffffffffffffffffffffffffffffffffffff16815260200190815260200160002060008981526020019081526020016000209050606087876040516020018083815260200182805190602001908083835b6020831061292057805182526020820191506020810190506020830392506128fd565b6001836020036101000a03801982511681845116808217855250505050505090500192505050604051602081830303815290604052905060008180519060200120905061296b6136d1565b83600a0160003373ffffffffffffffffffffffffffffffffffffffff1673ffffffffffffffffffffffffffffffffffffffff168152602001908152602001600020600083815260200190815260200160002060405180608001604052908160008201548152602001600182015481526020016002820160009054906101000a900460ff161515151581526020016002820160019054906101000a900473ffffffffffffffffffffffffffffffffffffffff1673ffffffffffffffffffffffffffffffffffffffff1673ffffffffffffffffffffffffffffffffffffffff16815250509050806000015181602001518260400151836060015197509750975097505050505093509350935093565b60005481565b60006004600083815260200190815260200160002060009054906101000a900473ffffffffffffffffffffffffffffffffffffffff1690508073ffffffffffffffffffffffffffffffffffffffff1663a97d1b10336040518263ffffffff1660e01b8152600401808273ffffffffffffffffffffffffffffffffffffffff1673ffffffffffffffffffffffffffffffffffffffff168152602001915050600060405180830381600087803b158015612b3557600080fd5b505af1158015612b49573d6000803e3d6000fd5b5050505060008173ffffffffffffffffffffffffffffffffffffffff16311415612b7757612b76826119b1565b5b5050565b60008060008060006003600087815260200190815260200160002060009054906101000a900473ffffffffffffffffffffffffffffffffffffffff169050612bc16135b6565b600260008373ffffffffffffffffffffffffffffffffffffffff1673ffffffffffffffffffffffffffffffffffffffff1681526020019081526020016000206000888152602001908152602001600020604051806101c001604052908160008201548152602001600182018054600181600116156101000203166002900480601f016020809104026020016040519081016040528092919081815260200182805460018160011615610100020316600290048015612cc05780601f10612c9557610100808354040283529160200191612cc0565b820191906000526020600020905b815481529060010190602001808311612ca357829003601f168201915b50505050508152602001600282018054600181600116156101000203166002900480601f016020809104026020016040519081016040528092919081815260200182805460018160011615610100020316600290048015612d625780601f10612d3757610100808354040283529160200191612d62565b820191906000526020600020905b815481529060010190602001808311612d4557829003601f168201915b50505050508152602001600382018054600181600116156101000203166002900480601f016020809104026020016040519081016040528092919081815260200182805460018160011615610100020316600290048015612e045780601f10612dd957610100808354040283529160200191612e04565b820191906000526020600020905b815481529060010190602001808311612de757829003601f168201915b50505050508152602001600482018054600181600116156101000203166002900480601f016020809104026020016040519081016040528092919081815260200182805460018160011615610100020316600290048015612ea65780601f10612e7b57610100808354040283529160200191612ea6565b820191906000526020600020905b815481529060010190602001808311612e8957829003601f168201915b505050505081526020016005820154815260200160068201548152602001600782015481526020016008820160009054906101000a900460ff166002811115612eeb57fe5b6002811115612ef657fe5b81526020016008820160019054906101000a900460ff166001811115612f1857fe5b6001811115612f2357fe5b815260200160098201548152602001600b820160009054906101000a900473ffffffffffffffffffffffffffffffffffffffff1673ffffffffffffffffffffffffffffffffffffffff1673ffffffffffffffffffffffffffffffffffffffff168152602001600c8201548152602001600d820154815250509050806101600151816101800151826101a00151836101400151955095509550955050509193509193565b60006003600083815260200190815260200160002060009054906101000a900473ffffffffffffffffffffffffffffffffffffffff1690506000600260008373ffffffffffffffffffffffffffffffffffffffff1673ffffffffffffffffffffffffffffffffffffffff16815260200190815260200160002060008481526020019081526020016000209050600081600b0160009054906101000a900473ffffffffffffffffffffffffffffffffffffffff169050600083905060003390508360060154421161309557600080fd5b3373ffffffffffffffffffffffffffffffffffffffff168373ffffffffffffffffffffffffffffffffffffffff1614156130ce57600080fd5b3373ffffffffffffffffffffffffffffffffffffffff168273ffffffffffffffffffffffffffffffffffffffff16141561310757600080fd5b6000600281111561311457fe5b8460080160009054906101000a900460ff16600281111561313157fe5b1461313b57600080fd5b6000846009015414156131735760028460080160006101000a81548160ff0219169083600281111561316957fe5b021790555061319a565b60018460080160006101000a81548160ff0219169083600281111561319457fe5b02179055505b600084600d01548484846040516131b090613711565b808473ffffffffffffffffffffffffffffffffffffffff1673ffffffffffffffffffffffffffffffffffffffff1681526020018373ffffffffffffffffffffffffffffffffffffffff1673ffffffffffffffffffffffffffffffffffffffff1681526020018273ffffffffffffffffffffffffffffffffffffffff1673ffffffffffffffffffffffffffffffffffffffff16815260200193505050506040518091039082f080158015613267573d6000803e3d6000fd5b5090509050806004600089815260200190815260200160002060006101000a81548173ffffffffffffffffffffffffffffffffffffffff021916908373ffffffffffffffffffffffffffffffffffffffff160217905550600085600d015486600c01540390508473ffffffffffffffffffffffffffffffffffffffff166108fc829081150290604051600060405180830381858888f19350505050158015613313573d6000803e3d6000fd5b505050505050505050565b6000600260006003600086815260200190815260200160002060009054906101000a900473ffffffffffffffffffffffffffffffffffffffff1673ffffffffffffffffffffffffffffffffffffffff1673ffffffffffffffffffffffffffffffffffffffff1681526020019081526020016000206000848152602001908152602001600020905080600501544210156133b657600080fd5b80600601544211156133c757600080fd5b806007015434116133d757600080fd5b600073ffffffffffffffffffffffffffffffffffffffff1681600a0160003373ffffffffffffffffffffffffffffffffffffffff1673ffffffffffffffffffffffffffffffffffffffff168152602001908152602001600020600084815260200190815260200160002060020160019054906101000a900473ffffffffffffffffffffffffffffffffffffffff1673ffffffffffffffffffffffffffffffffffffffff161461348557600080fd5b60405180608001604052808481526020013481526020016000151581526020013373ffffffffffffffffffffffffffffffffffffffff1681525081600a0160003373ffffffffffffffffffffffffffffffffffffffff1673ffffffffffffffffffffffffffffffffffffffff1681526020019081526020016000206000848152602001908152602001600020600082015181600001556020820151816001015560408201518160020160006101000a81548160ff02191690831515021790555060608201518160020160016101000a81548173ffffffffffffffffffffffffffffffffffffffff021916908373ffffffffffffffffffffffffffffffffffffffff1602179055509050508060090160008154809291906001019190505550505050565b600042905090565b60015481565b604051806101c0016040528060008152602001606081526020016060815260200160608152602001606081526020016000815260200160008152602001600081526020016000600281111561360757fe5b81526020016000600181111561361957fe5b815260200160008152602001600073ffffffffffffffffffffffffffffffffffffffff16815260200160008152602001600081525090565b828054600181600116156101000203166002900490600052602060002090601f016020900481019282601f1061369257805160ff19168380011785556136c0565b828001600101855582156136c0579182015b828111156136bf5782518255916020019190600101906136a4565b5b5090506136cd919061371e565b5090565b60405180608001604052806000815260200160008152602001600015158152602001600073ffffffffffffffffffffffffffffffffffffffff1681525090565b610e658061374483390190565b61374091905b8082111561373c576000816000905550600101613724565b5090565b9056fe6080604052604051610e65380380610e658339818101604052606081101561002657600080fd5b81019080805190602001909291908051906020019092919080519060200190929190505050826000806101000a81548173ffffffffffffffffffffffffffffffffffffffff021916908373ffffffffffffffffffffffffffffffffffffffff16021790555081600160006101000a81548173ffffffffffffffffffffffffffffffffffffffff021916908373ffffffffffffffffffffffffffffffffffffffff16021790555080600260006101000a81548173ffffffffffffffffffffffffffffffffffffffff021916908373ffffffffffffffffffffffffffffffffffffffff160217905550346003819055506000600460006101000a81548160ff0219169083151502179055507ffebb63368ef9ded0763235844c67570ecc200b5f5ca3c33430298bfaff8de8c4838383604051808473ffffffffffffffffffffffffffffffffffffffff1673ffffffffffffffffffffffffffffffffffffffff1681526020018373ffffffffffffffffffffffffffffffffffffffff1673ffffffffffffffffffffffffffffffffffffffff1681526020018273ffffffffffffffffffffffffffffffffffffffff1673ffffffffffffffffffffffffffffffffffffffff168152602001935050505060405180910390a1505050610c598061020c6000396000f3fe6080604052600436106100915760003560e01c8063aa8c217c11610059578063aa8c217c146101f7578063b8d08db214610222578063d1a52e301461024d578063f3d259041461027c578063fe25e00a1461035257610091565b806308551a53146100965780630bda4dbf146100ed57806358aad10b146101185780637150d8ae1461015c578063a97d1b10146101b3575b600080fd5b3480156100a257600080fd5b506100ab6103a9565b604051808273ffffffffffffffffffffffffffffffffffffffff1673ffffffffffffffffffffffffffffffffffffffff16815260200191505060405180910390f35b3480156100f957600080fd5b506101026103cf565b6040518082815260200191505060405180910390f35b61015a6004803603602081101561012e57600080fd5b81019080803573ffffffffffffffffffffffffffffffffffffffff1690602001909291905050506103d5565b005b34801561016857600080fd5b5061017161077b565b604051808273ffffffffffffffffffffffffffffffffffffffff1673ffffffffffffffffffffffffffffffffffffffff16815260200191505060405180910390f35b6101f5600480360360208110156101c957600080fd5b81019080803573ffffffffffffffffffffffffffffffffffffffff1690602001909291905050506107a0565b005b34801561020357600080fd5b5061020c610b44565b6040518082815260200191505060405180910390f35b34801561022e57600080fd5b50610237610b4a565b6040518082815260200191505060405180910390f35b34801561025957600080fd5b50610262610b50565b604051808215151515815260200191505060405180910390f35b34801561028857600080fd5b50610291610b63565b604051808773ffffffffffffffffffffffffffffffffffffffff1673ffffffffffffffffffffffffffffffffffffffff1681526020018673ffffffffffffffffffffffffffffffffffffffff1673ffffffffffffffffffffffffffffffffffffffff1681526020018573ffffffffffffffffffffffffffffffffffffffff1673ffffffffffffffffffffffffffffffffffffffff16815260200184151515158152602001838152602001828152602001965050505050505060405180910390f35b34801561035e57600080fd5b50610367610bfe565b604051808273ffffffffffffffffffffffffffffffffffffffff1673ffffffffffffffffffffffffffffffffffffffff16815260200191505060405180910390f35b600160009054906101000a900473ffffffffffffffffffffffffffffffffffffffff1681565b60085481565b600460009054906101000a900460ff16156103ef57600080fd5b6000809054906101000a900473ffffffffffffffffffffffffffffffffffffffff1673ffffffffffffffffffffffffffffffffffffffff168173ffffffffffffffffffffffffffffffffffffffff1614806104975750600160009054906101000a900473ffffffffffffffffffffffffffffffffffffffff1673ffffffffffffffffffffffffffffffffffffffff168173ffffffffffffffffffffffffffffffffffffffff16145b806104ef5750600260009054906101000a900473ffffffffffffffffffffffffffffffffffffffff1673ffffffffffffffffffffffffffffffffffffffff168173ffffffffffffffffffffffffffffffffffffffff16145b801561054c575060011515600560008373ffffffffffffffffffffffffffffffffffffffff1673ffffffffffffffffffffffffffffffffffffffff16815260200190815260200160002060009054906101000a900460ff16151514155b15610657576001600560008373ffffffffffffffffffffffffffffffffffffffff1673ffffffffffffffffffffffffffffffffffffffff16815260200190815260200160002060006101000a81548160ff02191690831515021790555060016006600082825401925050819055507f2af39dd3b8a0a0c3d434feb2ea105f9e48fb5471fca8e3e090e3129077055a038160405180806020018373ffffffffffffffffffffffffffffffffffffffff1673ffffffffffffffffffffffffffffffffffffffff168152602001828103825260078152602001807f72656c65617365000000000000000000000000000000000000000000000000008152506020019250505060405180910390a15b6002600654141561077857600160009054906101000a900473ffffffffffffffffffffffffffffffffffffffff1673ffffffffffffffffffffffffffffffffffffffff166108fc6003549081150290604051600060405180830381858888f193505050501580156106cc573d6000803e3d6000fd5b506001600460006101000a81548160ff0219169083151502179055507ffc0502d1f5193ed5555e5ea7b222c8823fb7184f8194a01ed73d55a8e3c300e1600354600160009054906101000a900473ffffffffffffffffffffffffffffffffffffffff16604051808381526020018273ffffffffffffffffffffffffffffffffffffffff1673ffffffffffffffffffffffffffffffffffffffff1681526020019250505060405180910390a15b50565b6000809054906101000a900473ffffffffffffffffffffffffffffffffffffffff1681565b600460009054906101000a900460ff16156107ba57600080fd5b6000809054906101000a900473ffffffffffffffffffffffffffffffffffffffff1673ffffffffffffffffffffffffffffffffffffffff168173ffffffffffffffffffffffffffffffffffffffff1614806108625750600160009054906101000a900473ffffffffffffffffffffffffffffffffffffffff1673ffffffffffffffffffffffffffffffffffffffff168173ffffffffffffffffffffffffffffffffffffffff16145b806108ba5750600260009054906101000a900473ffffffffffffffffffffffffffffffffffffffff1673ffffffffffffffffffffffffffffffffffffffff168173ffffffffffffffffffffffffffffffffffffffff16145b8015610917575060011515600760008373ffffffffffffffffffffffffffffffffffffffff1673ffffffffffffffffffffffffffffffffffffffff16815260200190815260200160002060009054906101000a900460ff16151514155b15610a22576001600760008373ffffffffffffffffffffffffffffffffffffffff1673ffffffffffffffffffffffffffffffffffffffff16815260200190815260200160002060006101000a81548160ff02191690831515021790555060016008600082825401925050819055507f2af39dd3b8a0a0c3d434feb2ea105f9e48fb5471fca8e3e090e3129077055a038160405180806020018373ffffffffffffffffffffffffffffffffffffffff1673ffffffffffffffffffffffffffffffffffffffff168152602001828103825260068152602001807f726566756e6400000000000000000000000000000000000000000000000000008152506020019250505060405180910390a15b60026008541415610b41576000809054906101000a900473ffffffffffffffffffffffffffffffffffffffff1673ffffffffffffffffffffffffffffffffffffffff166108fc6003549081150290604051600060405180830381858888f19350505050158015610a96573d6000803e3d6000fd5b506001600460006101000a81548160ff0219169083151502179055507ffc0502d1f5193ed5555e5ea7b222c8823fb7184f8194a01ed73d55a8e3c300e16003546000809054906101000a900473ffffffffffffffffffffffffffffffffffffffff16604051808381526020018273ffffffffffffffffffffffffffffffffffffffff1673ffffffffffffffffffffffffffffffffffffffff1681526020019250505060405180910390a15b50565b60035481565b60065481565b600460009054906101000a900460ff1681565b6000806000806000806000809054906101000a900473ffffffffffffffffffffffffffffffffffffffff16600160009054906101000a900473ffffffffffffffffffffffffffffffffffffffff16600260009054906101000a900473ffffffffffffffffffffffffffffffffffffffff16600460009054906101000a900460ff16600654600854955095509550955095509550909192939495565b600260009054906101000a900473ffffffffffffffffffffffffffffffffffffffff168156fea265627a7a72315820fe2cadcaf51807ef8215bebfcb7e92547bba2a499dd165b4a0c2d4969a91307864736f6c63430005100032a265627a7a723158207a18bd414d958036070858428f1145b8e8efc425c287807d6cf8a48dfe2bc3dd64736f6c63430005100032",
  "source": "pragma solidity ^ 0.5.16;\n\nimport './Escrow.sol';\ncontract EcommerceStore {\n  uint public productIndex;\n  uint public totalDeposit;   //\n  constructor() public {\n    productIndex = 0;\n    totalDeposit = 0;\n  }\n  //1.  \n  // 2. \n  // 3. id\n  struct Product {\n    //\n    uint id; //id:id\n    string name; //\n    string category; //\n    string imageLink; //hash\n    string descLink; //hash\n    // \n    // \n    // \n    // Opensoldunsold\n    // \n    uint auctionStartTime; //\n    uint auctionEndTime; // \n    uint startPrice; // \n    ProductStatus status; //\n    ProductCondition condition; // \n    //\n    uint totalBids; // \n    //\n    //Byes32\n    mapping(address => mapping(bytes32 => Bid)) bids;\n    //\n    address highestBidder; // \n    uint highestBid; // \n    uint secondHighestBid; // \n  }\n\n  enum ProductStatus {Open,Sold,Unsold}\n  enum ProductCondition {New,Used}\n\n  // stores\n  mapping(address => mapping(uint => Product)) stores;\n  //\n  mapping(uint => address) productIdToOwner;\n\n  function hello() public pure returns (string memory){\n    return \"hello world\";\n  }\n\n  function nowtime() public view returns (uint){\n      return now;\n  }\n\n   function testvalue() public payable returns (uint){\n      return msg.value;\n  }\n\n\n  /*  */\n  function addProductToStore(string memory _name, string memory _category, string memory _imageLink, string memory _descLink, uint _startTime, uint _endTime, uint _startPrice, uint condition) payable public {\n    require(_startTime < _endTime);\n    productIndex += 1;\n    Product memory product = Product({\n      id : productIndex,\n      name : _name,\n      category : _category,\n      imageLink : _imageLink,\n      descLink : _descLink,\n      startPrice : _startPrice,\n      auctionStartTime : _startTime,\n      auctionEndTime : _endTime,\n      status : ProductStatus.Open,\n      condition : ProductCondition(condition),\n      highestBid : 0,\n      highestBidder : address(0),\n      secondHighestBid : 0,\n      totalBids : 0\n    });\n    stores[msg.sender][productIndex] = product;\n    productIdToOwner[productIndex] = msg.sender;\n    totalDeposit += _startPrice;\n  }\n\n  //ID\n  function getAccountOfId(uint _productId) public view returns(address){\n    return productIdToOwner[_productId];\n  }\n\n  function testHash(uint value, string memory secret) public pure returns (bytes32) {\n      bytes memory bytesInfo = abi.encodePacked(value, secret);\n      bytes32 bytesHash = sha256(bytesInfo);\n      return bytesHash;\n  }\n\n  // \n    // \t1. ID\n    // \t2. \n    // \t3. \n    // \t4. \n  struct Bid {\n    uint productId;\n    uint price;  //msg.value\n    bool isRevealed;\n    address bidder;\n  }\n\n  // \n  //\n  // 1. id\n  // 2. Productbids\n  // mapping(address => mapping(bytes32 => Bid)) bids;\n  function bid(uint _productId, bytes32 _bytesHash) payable public {\n    Product storage product = stores[productIdToOwner[_productId]][_productId];\n    require(now >= product.auctionStartTime);\n    require(now <= product.auctionEndTime);\n    require(msg.value > product.startPrice);\n    require(product.bids[msg.sender][_bytesHash].bidder == address(0));\n    product.bids[msg.sender][_bytesHash] = Bid(_productId, msg.value, false, msg.sender);\n    product.totalBids ++;\n  }\n\n  //\n  function getBidById(uint _productId, uint _idealPrice, string memory _secret) public view returns (uint, uint, bool, address) {\n    Product storage product = stores[productIdToOwner[_productId]][_productId];\n    bytes memory bytesInfo = abi.encodePacked(_idealPrice, _secret);\n    bytes32 bytesHash = keccak256(bytesInfo);\n    Bid memory bidLocal = product.bids[msg.sender][bytesHash];\n    return (bidLocal.productId, bidLocal.price, bidLocal.isRevealed, bidLocal.bidder);\n  }\n\n  event revealEvent(uint productid, bytes32 bidId, uint idealPrice, uint price, uint refund);\n\n  function numberOfItems() view public returns (uint){\n    return productIndex;\n  }\n\n  event NewProduct(uint _productId, string _name, string _category, string _imageLink, string _descLink,\n    uint _auctionStartTime, uint _auctionEndTime, uint _startPrice, uint _productCondition);\n\n  function revealBid(uint _productId, uint _idealPrice, string memory _secret) public {\n    Product storage product = stores[productIdToOwner[_productId]][_productId];\n    require(now > product.auctionEndTime);\n    bytes32 bidId = sha256(abi.encodePacked(_idealPrice, _secret));\n    //, storage\n    Bid storage currBid = product.bids[msg.sender][bidId];\n    require(currBid.bidder > address(0)); //0xf55 uint160\n    require(!currBid.isRevealed);\n    //\n    currBid.isRevealed = true;\n    //bid\n    uint confusePrice = currBid.price;\n    uint refund = 0; // \n    uint idealPrice = _idealPrice;\n    if (confusePrice < idealPrice) {\n      //1\n      refund = confusePrice;\n    } else {\n      if (idealPrice > product.highestBid) {\n        if (product.highestBidder == address(0)) {\n          //\n          //2\n          product.highestBidder = msg.sender;\n          product.highestBid = idealPrice;\n          product.secondHighestBid = product.startPrice;\n          refund = confusePrice - idealPrice;\n        } else {\n          //3\n          address(uint160(product.highestBidder)).transfer(product.highestBid);\n          product.secondHighestBid = product.highestBid;\n          product.highestBid = idealPrice;\n          product.highestBidder = msg.sender;\n          refund = confusePrice - idealPrice;\n        }\n      } else {\n        //4\n        if (idealPrice > product.secondHighestBid) {\n          //4\n          product.secondHighestBid = idealPrice;\n        } else {\n          //5\n          refund = confusePrice;\n        }\n      }\n    }\n    emit revealEvent(_productId, bidId, confusePrice, currBid.price, refund);\n    if (refund > 0) {\n      msg.sender.transfer(refund);\n    }\n  }\n\n  //ID\n  function getHighestBidInfo(uint _productId) view public returns(address, uint, uint, uint) {\n    address owner = productIdToOwner[_productId];\n    Product memory product = stores[owner][_productId];\n    return (product.highestBidder, product.highestBid, product.secondHighestBid, product.totalBids);\n  }\n\n  /* ID */\n  function getProductById(uint _productId) view public returns(uint, string memory , string memory , string memory , string memory , uint, uint, uint, uint, address,uint) {\n    address owner = productIdToOwner[_productId];\n    Product memory product = stores[owner][_productId];\n    return (product.id, product.name, product.category, product.imageLink, product.descLink, product.auctionStartTime, product.auctionEndTime, product.startPrice, uint(product.status), product.highestBidder, product.highestBid);\n  }\n\n  //keyidvalue\n  mapping(uint => address) public productToEscrow;\n\n  //\n  function totalBids(uint _productId) view public returns(uint) {\n    address owner = productIdToOwner[_productId];\n    Product memory product = stores[owner][_productId];\n    return product.totalBids;\n  }\n\n //uint\n  function stringToUint(string memory s) pure private returns(uint) {\n    bytes memory b = bytes(s);\n    uint result = 0;\n    for (uint i = 0; i < b.length; i++) {\n      if (uint8(b[i]) >= 48 && uint8(b[i]) <= 57) {\n        result = result * 10 + (uint8(b[i]) - 48);\n      }\n    }\n    return result;\n  }\n\n  //\n  function finalizeAuction(uint _productId) public {\n    address owner = productIdToOwner[_productId];\n    Product storage product = stores[owner][_productId];\n    address buyer = product.highestBidder;\n    address seller = owner;\n    address arbiter = msg.sender;\n    require(now > product.auctionEndTime);\n    require(buyer != msg.sender);\n    require(seller != msg.sender);\n    require(product.status == ProductStatus.Open);\n    if (product.totalBids == 0) {\n      product.status = ProductStatus.Unsold;\n    } else {\n      product.status = ProductStatus.Sold;\n    }\n    Escrow escrow = (new Escrow).value(product.secondHighestBid)(buyer, seller, arbiter);\n    productToEscrow[_productId] = address(escrow);\n    // 30- 20 = 10  3020\n    uint refund = product.highestBid - product.secondHighestBid;\n    address(uint160(buyer)).transfer(refund);\n  }\n\n  function escrowAddressForProduct(uint _productId) view public returns(address) {\n    return productToEscrow[_productId];\n  }\n\n  function getEscrowInfo(uint _productId) view public returns(address, address, address, bool, uint, uint) {\n    address escrow = productToEscrow[_productId];\n    return Escrow(escrow).escrowInfo();\n  }\n\n  function releaseAmountToSeller(uint _productId) payable public {\n    address escrow = productToEscrow[_productId];\n    Escrow(escrow).releaseAmountToSeller(msg.sender);\n    if(escrow.balance == 0){\n      refundDeposit(_productId);\n    }\n  }\n\n  function refundAmountToBuyer(uint _productId) payable public {\n    address escrow = productToEscrow[_productId];\n    Escrow(escrow).refundAmountToBuyer(msg.sender);\n    if(escrow.balance == 0){\n      refundDeposit(_productId);\n    }\n  }\n\n  function refundDeposit(uint _productId) payable public {\n    address seller = productIdToOwner[_productId];\n    Product memory product = stores[seller][_productId];\n    totalDeposit -= product.startPrice;\n    address(uint160(seller)).transfer(product.startPrice);\n  }\n}\n",
  "sourcePath": "/home/chrisyy/Desktop/sell/contracts/EcommerceStore.sol",
  "compiler": {
    "name": "solc",
    "version": "0.5.16+commit.9c3226ce.Emscripten.clang"
  },
  "schemaVersion": "3.4.7",
  "updatedAt": "2022-05-02T17:20:36.692Z",
  "devdoc": {
    "methods": {}
  },
  "userdoc": {
    "methods": {}
  }
}