{
  "contractName": "EcommerceStore",
  "abi": [
    {
      "inputs": [],
      "payable": false,
      "stateMutability": "nonpayable",
      "type": "constructor"
    },
    {
      "anonymous": false,
      "inputs": [
        {
          "indexed": false,
          "internalType": "uint256",
          "name": "_productId",
          "type": "uint256"
        },
        {
          "indexed": false,
          "internalType": "string",
          "name": "_name",
          "type": "string"
        },
        {
          "indexed": false,
          "internalType": "string",
          "name": "_category",
          "type": "string"
        },
        {
          "indexed": false,
          "internalType": "string",
          "name": "_imageLink",
          "type": "string"
        },
        {
          "indexed": false,
          "internalType": "string",
          "name": "_descLink",
          "type": "string"
        },
        {
          "indexed": false,
          "internalType": "uint256",
          "name": "_auctionStartTime",
          "type": "uint256"
        },
        {
          "indexed": false,
          "internalType": "uint256",
          "name": "_auctionEndTime",
          "type": "uint256"
        },
        {
          "indexed": false,
          "internalType": "uint256",
          "name": "_startPrice",
          "type": "uint256"
        },
        {
          "indexed": false,
          "internalType": "uint256",
          "name": "_productCondition",
          "type": "uint256"
        }
      ],
      "name": "NewProduct",
      "type": "event"
    },
    {
      "anonymous": false,
      "inputs": [
        {
          "indexed": false,
          "internalType": "uint256",
          "name": "productid",
          "type": "uint256"
        },
        {
          "indexed": false,
          "internalType": "bytes32",
          "name": "bidId",
          "type": "bytes32"
        },
        {
          "indexed": false,
          "internalType": "uint256",
          "name": "idealPrice",
          "type": "uint256"
        },
        {
          "indexed": false,
          "internalType": "uint256",
          "name": "price",
          "type": "uint256"
        },
        {
          "indexed": false,
          "internalType": "uint256",
          "name": "refund",
          "type": "uint256"
        }
      ],
      "name": "revealEvent",
      "type": "event"
    },
    {
      "constant": true,
      "inputs": [],
      "name": "productIndex",
      "outputs": [
        {
          "internalType": "uint256",
          "name": "",
          "type": "uint256"
        }
      ],
      "payable": false,
      "stateMutability": "view",
      "type": "function"
    },
    {
      "constant": true,
      "inputs": [
        {
          "internalType": "uint256",
          "name": "",
          "type": "uint256"
        }
      ],
      "name": "productToEscrow",
      "outputs": [
        {
          "internalType": "address",
          "name": "",
          "type": "address"
        }
      ],
      "payable": false,
      "stateMutability": "view",
      "type": "function"
    },
    {
      "constant": true,
      "inputs": [],
      "name": "totalDeposit",
      "outputs": [
        {
          "internalType": "uint256",
          "name": "",
          "type": "uint256"
        }
      ],
      "payable": false,
      "stateMutability": "view",
      "type": "function"
    },
    {
      "constant": true,
      "inputs": [],
      "name": "hello",
      "outputs": [
        {
          "internalType": "string",
          "name": "",
          "type": "string"
        }
      ],
      "payable": false,
      "stateMutability": "pure",
      "type": "function"
    },
    {
      "constant": false,
      "inputs": [
        {
          "internalType": "string",
          "name": "_name",
          "type": "string"
        },
        {
          "internalType": "string",
          "name": "_category",
          "type": "string"
        },
        {
          "internalType": "string",
          "name": "_imageLink",
          "type": "string"
        },
        {
          "internalType": "string",
          "name": "_descLink",
          "type": "string"
        },
        {
          "internalType": "uint256",
          "name": "_startTime",
          "type": "uint256"
        },
        {
          "internalType": "uint256",
          "name": "_endTime",
          "type": "uint256"
        },
        {
          "internalType": "uint256",
          "name": "_startPrice",
          "type": "uint256"
        },
        {
          "internalType": "uint256",
          "name": "condition",
          "type": "uint256"
        }
      ],
      "name": "addProductToStore",
      "outputs": [],
      "payable": true,
      "stateMutability": "payable",
      "type": "function"
    },
    {
      "constant": true,
      "inputs": [
        {
          "internalType": "uint256",
          "name": "_productId",
          "type": "uint256"
        }
      ],
      "name": "getAccountOfId",
      "outputs": [
        {
          "internalType": "address",
          "name": "",
          "type": "address"
        }
      ],
      "payable": false,
      "stateMutability": "view",
      "type": "function"
    },
    {
      "constant": true,
      "inputs": [
        {
          "internalType": "uint256",
          "name": "value",
          "type": "uint256"
        },
        {
          "internalType": "string",
          "name": "secret",
          "type": "string"
        }
      ],
      "name": "testHash",
      "outputs": [
        {
          "internalType": "bytes32",
          "name": "",
          "type": "bytes32"
        }
      ],
      "payable": false,
      "stateMutability": "pure",
      "type": "function"
    },
    {
      "constant": false,
      "inputs": [
        {
          "internalType": "uint256",
          "name": "_productId",
          "type": "uint256"
        },
        {
          "internalType": "bytes32",
          "name": "_bytesHash",
          "type": "bytes32"
        }
      ],
      "name": "bid",
      "outputs": [],
      "payable": true,
      "stateMutability": "payable",
      "type": "function"
    },
    {
      "constant": true,
      "inputs": [
        {
          "internalType": "uint256",
          "name": "_productId",
          "type": "uint256"
        },
        {
          "internalType": "uint256",
          "name": "_idealPrice",
          "type": "uint256"
        },
        {
          "internalType": "string",
          "name": "_secret",
          "type": "string"
        }
      ],
      "name": "getBidById",
      "outputs": [
        {
          "internalType": "uint256",
          "name": "",
          "type": "uint256"
        },
        {
          "internalType": "uint256",
          "name": "",
          "type": "uint256"
        },
        {
          "internalType": "bool",
          "name": "",
          "type": "bool"
        },
        {
          "internalType": "address",
          "name": "",
          "type": "address"
        }
      ],
      "payable": false,
      "stateMutability": "view",
      "type": "function"
    },
    {
      "constant": true,
      "inputs": [],
      "name": "numberOfItems",
      "outputs": [
        {
          "internalType": "uint256",
          "name": "",
          "type": "uint256"
        }
      ],
      "payable": false,
      "stateMutability": "view",
      "type": "function"
    },
    {
      "constant": false,
      "inputs": [
        {
          "internalType": "uint256",
          "name": "_productId",
          "type": "uint256"
        },
        {
          "internalType": "uint256",
          "name": "_idealPrice",
          "type": "uint256"
        },
        {
          "internalType": "string",
          "name": "_secret",
          "type": "string"
        }
      ],
      "name": "revealBid",
      "outputs": [],
      "payable": false,
      "stateMutability": "nonpayable",
      "type": "function"
    },
    {
      "constant": true,
      "inputs": [
        {
          "internalType": "uint256",
          "name": "_productId",
          "type": "uint256"
        }
      ],
      "name": "getHighestBidInfo",
      "outputs": [
        {
          "internalType": "address",
          "name": "",
          "type": "address"
        },
        {
          "internalType": "uint256",
          "name": "",
          "type": "uint256"
        },
        {
          "internalType": "uint256",
          "name": "",
          "type": "uint256"
        },
        {
          "internalType": "uint256",
          "name": "",
          "type": "uint256"
        }
      ],
      "payable": false,
      "stateMutability": "view",
      "type": "function"
    },
    {
      "constant": true,
      "inputs": [
        {
          "internalType": "uint256",
          "name": "_productId",
          "type": "uint256"
        }
      ],
      "name": "getProductById",
      "outputs": [
        {
          "internalType": "uint256",
          "name": "",
          "type": "uint256"
        },
        {
          "internalType": "string",
          "name": "",
          "type": "string"
        },
        {
          "internalType": "string",
          "name": "",
          "type": "string"
        },
        {
          "internalType": "string",
          "name": "",
          "type": "string"
        },
        {
          "internalType": "string",
          "name": "",
          "type": "string"
        },
        {
          "internalType": "uint256",
          "name": "",
          "type": "uint256"
        },
        {
          "internalType": "uint256",
          "name": "",
          "type": "uint256"
        },
        {
          "internalType": "uint256",
          "name": "",
          "type": "uint256"
        },
        {
          "internalType": "uint256",
          "name": "",
          "type": "uint256"
        },
        {
          "internalType": "address",
          "name": "",
          "type": "address"
        },
        {
          "internalType": "uint256",
          "name": "",
          "type": "uint256"
        }
      ],
      "payable": false,
      "stateMutability": "view",
      "type": "function"
    },
    {
      "constant": true,
      "inputs": [
        {
          "internalType": "uint256",
          "name": "_productId",
          "type": "uint256"
        }
      ],
      "name": "totalBids",
      "outputs": [
        {
          "internalType": "uint256",
          "name": "",
          "type": "uint256"
        }
      ],
      "payable": false,
      "stateMutability": "view",
      "type": "function"
    },
    {
      "constant": false,
      "inputs": [
        {
          "internalType": "uint256",
          "name": "_productId",
          "type": "uint256"
        }
      ],
      "name": "finalizeAuction",
      "outputs": [],
      "payable": false,
      "stateMutability": "nonpayable",
      "type": "function"
    },
    {
      "constant": true,
      "inputs": [
        {
          "internalType": "uint256",
          "name": "_productId",
          "type": "uint256"
        }
      ],
      "name": "escrowAddressForProduct",
      "outputs": [
        {
          "internalType": "address",
          "name": "",
          "type": "address"
        }
      ],
      "payable": false,
      "stateMutability": "view",
      "type": "function"
    },
    {
      "constant": true,
      "inputs": [
        {
          "internalType": "uint256",
          "name": "_productId",
          "type": "uint256"
        }
      ],
      "name": "getEscrowInfo",
      "outputs": [
        {
          "internalType": "address",
          "name": "",
          "type": "address"
        },
        {
          "internalType": "address",
          "name": "",
          "type": "address"
        },
        {
          "internalType": "address",
          "name": "",
          "type": "address"
        },
        {
          "internalType": "bool",
          "name": "",
          "type": "bool"
        },
        {
          "internalType": "uint256",
          "name": "",
          "type": "uint256"
        },
        {
          "internalType": "uint256",
          "name": "",
          "type": "uint256"
        }
      ],
      "payable": false,
      "stateMutability": "view",
      "type": "function"
    },
    {
      "constant": false,
      "inputs": [
        {
          "internalType": "uint256",
          "name": "_productId",
          "type": "uint256"
        }
      ],
      "name": "releaseAmountToSeller",
      "outputs": [],
      "payable": true,
      "stateMutability": "payable",
      "type": "function"
    },
    {
      "constant": false,
      "inputs": [
        {
          "internalType": "uint256",
          "name": "_productId",
          "type": "uint256"
        }
      ],
      "name": "refundAmountToBuyer",
      "outputs": [],
      "payable": true,
      "stateMutability": "payable",
      "type": "function"
    },
    {
      "constant": false,
      "inputs": [
        {
          "internalType": "uint256",
          "name": "_productId",
          "type": "uint256"
        }
      ],
      "name": "refundDeposit",
      "outputs": [],
      "payable": true,
      "stateMutability": "payable",
      "type": "function"
    }
  ],
  "bytecode": "0x608060405234801561001057600080fd5b5060008081905550600060018190555061456e8061002f6000396000f3fe60806040526004361061011f5760003560e01c80639a3a7c69116100a0578063cc352db711610064578063cc352db714610d15578063e52071e414610d43578063e808386314610dd3578063ea1591bb14610e0e578063f6153ccd14610e465761011f565b80639a3a7c6914610802578063a489d5d714610830578063a508b9551461090c578063b4392fd614610bb5578063c897d5a614610cea5761011f565b806347e6afed116100e757806347e6afed1461054e5780635cd96f0d146105c95780636de0de7e146106af578063842296d4146106dd5780638646405e146107085761011f565b806319ff1d211461012457806328e3d190146101b45780633b301302146102035780633f70c2b41461027e5780634389754a146104d3575b600080fd5b34801561013057600080fd5b50610139610e71565b6040518080602001828103825283818151815260200191508051906020019080838360005b8381101561017957808201518184015260208101905061015e565b50505050905090810190601f1680156101a65780820380516001836020036101000a031916815260200191505b509250505060405180910390f35b3480156101c057600080fd5b506101ed600480360360208110156101d757600080fd5b8101908080359060200190929190505050610eae565b6040518082815260200191505060405180910390f35b34801561020f57600080fd5b5061023c6004803603602081101561022657600080fd5b81019080803590602001909291905050506112da565b604051808273ffffffffffffffffffffffffffffffffffffffff1673ffffffffffffffffffffffffffffffffffffffff16815260200191505060405180910390f35b34801561028a57600080fd5b506102b7600480360360208110156102a157600080fd5b8101908080359060200190929190505050611317565b604051808c8152602001806020018060200180602001806020018b81526020018a81526020018981526020018881526020018773ffffffffffffffffffffffffffffffffffffffff1673ffffffffffffffffffffffffffffffffffffffff16815260200186815260200185810385528f818151815260200191508051906020019080838360005b8381101561035957808201518184015260208101905061033e565b50505050905090810190601f1680156103865780820380516001836020036101000a031916815260200191505b5085810384528e818151815260200191508051906020019080838360005b838110156103bf5780820151818401526020810190506103a4565b50505050905090810190601f1680156103ec5780820380516001836020036101000a031916815260200191505b5085810383528d818151815260200191508051906020019080838360005b8381101561042557808201518184015260208101905061040a565b50505050905090810190601f1680156104525780820380516001836020036101000a031916815260200191505b5085810382528c818151815260200191508051906020019080838360005b8381101561048b578082015181840152602081019050610470565b50505050905090810190601f1680156104b85780820380516001836020036101000a031916815260200191505b509f5050505050505050505050505050505060405180910390f35b3480156104df57600080fd5b5061050c600480360360208110156104f657600080fd5b81019080803590602001909291905050506117bc565b604051808273ffffffffffffffffffffffffffffffffffffffff1673ffffffffffffffffffffffffffffffffffffffff16815260200191505060405180910390f35b34801561055a57600080fd5b506105876004803603602081101561057157600080fd5b81019080803590602001909291905050506117f9565b604051808273ffffffffffffffffffffffffffffffffffffffff1673ffffffffffffffffffffffffffffffffffffffff16815260200191505060405180910390f35b3480156105d557600080fd5b50610699600480360360408110156105ec57600080fd5b81019080803590602001909291908035906020019064010000000081111561061357600080fd5b82018360208201111561062557600080fd5b8035906020019184600183028401116401000000008311171561064757600080fd5b91908080601f016020809104026020016040519081016040528093929190818152602001838380828437600081840152601f19601f82011690508083019250505050505050919291929050505061182c565b6040518082815260200191505060405180910390f35b6106db600480360360208110156106c557600080fd5b8101908080359060200190929190505050611952565b005b3480156106e957600080fd5b506106f2611dd2565b6040518082815260200191505060405180910390f35b34801561071457600080fd5b506107416004803603602081101561072b57600080fd5b8101908080359060200190929190505050611ddb565b604051808773ffffffffffffffffffffffffffffffffffffffff1673ffffffffffffffffffffffffffffffffffffffff1681526020018673ffffffffffffffffffffffffffffffffffffffff1673ffffffffffffffffffffffffffffffffffffffff1681526020018573ffffffffffffffffffffffffffffffffffffffff1673ffffffffffffffffffffffffffffffffffffffff16815260200184151515158152602001838152602001828152602001965050505050505060405180910390f35b61082e6004803603602081101561081857600080fd5b8101908080359060200190929190505050611ee5565b005b34801561083c57600080fd5b5061090a6004803603606081101561085357600080fd5b8101908080359060200190929190803590602001909291908035906020019064010000000081111561088457600080fd5b82018360208201111561089657600080fd5b803590602001918460018302840111640100000000831117156108b857600080fd5b91908080601f016020809104026020016040519081016040528093929190818152602001838380828437600081840152601f19601f820116905080830192505050505050509192919290505050611fe2565b005b610bb3600480360361010081101561092357600080fd5b810190808035906020019064010000000081111561094057600080fd5b82018360208201111561095257600080fd5b8035906020019184600183028401116401000000008311171561097457600080fd5b91908080601f016020809104026020016040519081016040528093929190818152602001838380828437600081840152601f19601f820116905080830192505050505050509192919290803590602001906401000000008111156109d757600080fd5b8201836020820111156109e957600080fd5b80359060200191846001830284011164010000000083111715610a0b57600080fd5b91908080601f016020809104026020016040519081016040528093929190818152602001838380828437600081840152601f19601f82011690508083019250505050505050919291929080359060200190640100000000811115610a6e57600080fd5b820183602082011115610a8057600080fd5b80359060200191846001830284011164010000000083111715610aa257600080fd5b91908080601f016020809104026020016040519081016040528093929190818152602001838380828437600081840152601f19601f82011690508083019250505050505050919291929080359060200190640100000000811115610b0557600080fd5b820183602082011115610b1757600080fd5b80359060200191846001830284011164010000000083111715610b3957600080fd5b91908080601f016020809104026020016040519081016040528093929190818152602001838380828437600081840152601f19601f8201169050808301925050505050505091929192908035906020019092919080359060200190929190803590602001909291908035906020019092919050505061250e565b005b348015610bc157600080fd5b50610c8f60048036036060811015610bd857600080fd5b81019080803590602001909291908035906020019092919080359060200190640100000000811115610c0957600080fd5b820183602082011115610c1b57600080fd5b80359060200191846001830284011164010000000083111715610c3d57600080fd5b91908080601f016020809104026020016040519081016040528093929190818152602001838380828437600081840152601f19601f8201169050808301925050505050505091929192905050506127ec565b60405180858152602001848152602001831515151581526020018273ffffffffffffffffffffffffffffffffffffffff1673ffffffffffffffffffffffffffffffffffffffff16815260200194505050505060405180910390f35b348015610cf657600080fd5b50610cff612a11565b6040518082815260200191505060405180910390f35b610d4160048036036020811015610d2b57600080fd5b8101908080359060200190929190505050612a17565b005b348015610d4f57600080fd5b50610d7c60048036036020811015610d6657600080fd5b8101908080359060200190929190505050612b14565b604051808573ffffffffffffffffffffffffffffffffffffffff1673ffffffffffffffffffffffffffffffffffffffff16815260200184815260200183815260200182815260200194505050505060405180910390f35b348015610ddf57600080fd5b50610e0c60048036036020811015610df657600080fd5b8101908080359060200190929190505050612f5f565b005b610e4460048036036040811015610e2457600080fd5b8101908080359060200190929190803590602001909291905050506132b7565b005b348015610e5257600080fd5b50610e5b613541565b6040518082815260200191505060405180910390f35b60606040518060400160405280600b81526020017f68656c6c6f20776f726c64000000000000000000000000000000000000000000815250905090565b6000806003600084815260200190815260200160002060009054906101000a900473ffffffffffffffffffffffffffffffffffffffff169050610eef613547565b600260008373ffffffffffffffffffffffffffffffffffffffff1673ffffffffffffffffffffffffffffffffffffffff1681526020019081526020016000206000858152602001908152602001600020604051806101c001604052908160008201548152602001600182018054600181600116156101000203166002900480601f016020809104026020016040519081016040528092919081815260200182805460018160011615610100020316600290048015610fee5780601f10610fc357610100808354040283529160200191610fee565b820191906000526020600020905b815481529060010190602001808311610fd157829003601f168201915b50505050508152602001600282018054600181600116156101000203166002900480601f0160208091040260200160405190810160405280929190818152602001828054600181600116156101000203166002900480156110905780601f1061106557610100808354040283529160200191611090565b820191906000526020600020905b81548152906001019060200180831161107357829003601f168201915b50505050508152602001600382018054600181600116156101000203166002900480601f0160208091040260200160405190810160405280929190818152602001828054600181600116156101000203166002900480156111325780601f1061110757610100808354040283529160200191611132565b820191906000526020600020905b81548152906001019060200180831161111557829003601f168201915b50505050508152602001600482018054600181600116156101000203166002900480601f0160208091040260200160405190810160405280929190818152602001828054600181600116156101000203166002900480156111d45780601f106111a9576101008083540402835291602001916111d4565b820191906000526020600020905b8154815290600101906020018083116111b757829003601f168201915b505050505081526020016005820154815260200160068201548152602001600782015481526020016008820160009054906101000a900460ff16600281111561121957fe5b600281111561122457fe5b81526020016008820160019054906101000a900460ff16600181111561124657fe5b600181111561125157fe5b815260200160098201548152602001600b820160009054906101000a900473ffffffffffffffffffffffffffffffffffffffff1673ffffffffffffffffffffffffffffffffffffffff1673ffffffffffffffffffffffffffffffffffffffff168152602001600c8201548152602001600d82015481525050905080610140015192505050919050565b60006003600083815260200190815260200160002060009054906101000a900473ffffffffffffffffffffffffffffffffffffffff169050919050565b60006060806060806000806000806000806000600360008e815260200190815260200160002060009054906101000a900473ffffffffffffffffffffffffffffffffffffffff169050611368613547565b600260008373ffffffffffffffffffffffffffffffffffffffff1673ffffffffffffffffffffffffffffffffffffffff16815260200190815260200160002060008f8152602001908152602001600020604051806101c001604052908160008201548152602001600182018054600181600116156101000203166002900480601f0160208091040260200160405190810160405280929190818152602001828054600181600116156101000203166002900480156114675780601f1061143c57610100808354040283529160200191611467565b820191906000526020600020905b81548152906001019060200180831161144a57829003601f168201915b50505050508152602001600282018054600181600116156101000203166002900480601f0160208091040260200160405190810160405280929190818152602001828054600181600116156101000203166002900480156115095780601f106114de57610100808354040283529160200191611509565b820191906000526020600020905b8154815290600101906020018083116114ec57829003601f168201915b50505050508152602001600382018054600181600116156101000203166002900480601f0160208091040260200160405190810160405280929190818152602001828054600181600116156101000203166002900480156115ab5780601f10611580576101008083540402835291602001916115ab565b820191906000526020600020905b81548152906001019060200180831161158e57829003601f168201915b50505050508152602001600482018054600181600116156101000203166002900480601f01602080910402602001604051908101604052809291908181526020018280546001816001161561010002031660029004801561164d5780601f106116225761010080835404028352916020019161164d565b820191906000526020600020905b81548152906001019060200180831161163057829003601f168201915b505050505081526020016005820154815260200160068201548152602001600782015481526020016008820160009054906101000a900460ff16600281111561169257fe5b600281111561169d57fe5b81526020016008820160019054906101000a900460ff1660018111156116bf57fe5b60018111156116ca57fe5b815260200160098201548152602001600b820160009054906101000a900473ffffffffffffffffffffffffffffffffffffffff1673ffffffffffffffffffffffffffffffffffffffff1673ffffffffffffffffffffffffffffffffffffffff168152602001600c8201548152602001600d820154815250509050806000015181602001518260400151836060015184608001518560a001518660c001518760e00151886101000151600281111561177d57fe5b8961016001518a61018001518999508898508797508696509c509c509c509c509c509c509c509c509c509c509c50505091939597999b90929496989a50565b60006004600083815260200190815260200160002060009054906101000a900473ffffffffffffffffffffffffffffffffffffffff169050919050565b60046020528060005260406000206000915054906101000a900473ffffffffffffffffffffffffffffffffffffffff1681565b6000606083836040516020018083815260200182805190602001908083835b6020831061186e578051825260208201915060208101905060208303925061184b565b6001836020036101000a03801982511681845116808217855250505050505090500192505050604051602081830303815290604052905060006002826040518082805190602001908083835b602083106118dd57805182526020820191506020810190506020830392506118ba565b6001836020036101000a038019825116818451168082178552505050505050905001915050602060405180830381855afa15801561191f573d6000803e3d6000fd5b5050506040513d602081101561193457600080fd5b81019080805190602001909291905050509050809250505092915050565b60006003600083815260200190815260200160002060009054906101000a900473ffffffffffffffffffffffffffffffffffffffff169050611992613547565b600260008373ffffffffffffffffffffffffffffffffffffffff1673ffffffffffffffffffffffffffffffffffffffff1681526020019081526020016000206000848152602001908152602001600020604051806101c001604052908160008201548152602001600182018054600181600116156101000203166002900480601f016020809104026020016040519081016040528092919081815260200182805460018160011615610100020316600290048015611a915780601f10611a6657610100808354040283529160200191611a91565b820191906000526020600020905b815481529060010190602001808311611a7457829003601f168201915b50505050508152602001600282018054600181600116156101000203166002900480601f016020809104026020016040519081016040528092919081815260200182805460018160011615610100020316600290048015611b335780601f10611b0857610100808354040283529160200191611b33565b820191906000526020600020905b815481529060010190602001808311611b1657829003601f168201915b50505050508152602001600382018054600181600116156101000203166002900480601f016020809104026020016040519081016040528092919081815260200182805460018160011615610100020316600290048015611bd55780601f10611baa57610100808354040283529160200191611bd5565b820191906000526020600020905b815481529060010190602001808311611bb857829003601f168201915b50505050508152602001600482018054600181600116156101000203166002900480601f016020809104026020016040519081016040528092919081815260200182805460018160011615610100020316600290048015611c775780601f10611c4c57610100808354040283529160200191611c77565b820191906000526020600020905b815481529060010190602001808311611c5a57829003601f168201915b505050505081526020016005820154815260200160068201548152602001600782015481526020016008820160009054906101000a900460ff166002811115611cbc57fe5b6002811115611cc757fe5b81526020016008820160019054906101000a900460ff166001811115611ce957fe5b6001811115611cf457fe5b815260200160098201548152602001600b820160009054906101000a900473ffffffffffffffffffffffffffffffffffffffff1673ffffffffffffffffffffffffffffffffffffffff1673ffffffffffffffffffffffffffffffffffffffff168152602001600c8201548152602001600d8201548152505090508060e001516001600082825403925050819055508173ffffffffffffffffffffffffffffffffffffffff166108fc8260e001519081150290604051600060405180830381858888f19350505050158015611dcc573d6000803e3d6000fd5b50505050565b60008054905090565b60008060008060008060006004600089815260200190815260200160002060009054906101000a900473ffffffffffffffffffffffffffffffffffffffff1690508073ffffffffffffffffffffffffffffffffffffffff1663f3d259046040518163ffffffff1660e01b815260040160c06040518083038186803b158015611e6257600080fd5b505afa158015611e76573d6000803e3d6000fd5b505050506040513d60c0811015611e8c57600080fd5b810190808051906020019092919080519060200190929190805190602001909291908051906020019092919080519060200190929190805190602001909291905050509650965096509650965096505091939550919395565b60006004600083815260200190815260200160002060009054906101000a900473ffffffffffffffffffffffffffffffffffffffff1690508073ffffffffffffffffffffffffffffffffffffffff166358aad10b336040518263ffffffff1660e01b8152600401808273ffffffffffffffffffffffffffffffffffffffff1673ffffffffffffffffffffffffffffffffffffffff168152602001915050600060405180830381600087803b158015611f9c57600080fd5b505af1158015611fb0573d6000803e3d6000fd5b5050505060008173ffffffffffffffffffffffffffffffffffffffff16311415611fde57611fdd82611952565b5b5050565b6000600260006003600087815260200190815260200160002060009054906101000a900473ffffffffffffffffffffffffffffffffffffffff1673ffffffffffffffffffffffffffffffffffffffff1673ffffffffffffffffffffffffffffffffffffffff168152602001908152602001600020600085815260200190815260200160002090508060060154421161207957600080fd5b6000600284846040516020018083815260200182805190602001908083835b602083106120bb5780518252602082019150602081019050602083039250612098565b6001836020036101000a038019825116818451168082178552505050505050905001925050506040516020818303038152906040526040518082805190602001908083835b602083106121235780518252602082019150602081019050602083039250612100565b6001836020036101000a038019825116818451168082178552505050505050905001915050602060405180830381855afa158015612165573d6000803e3d6000fd5b5050506040513d602081101561217a57600080fd5b81019080805190602001909291905050509050600082600a0160003373ffffffffffffffffffffffffffffffffffffffff1673ffffffffffffffffffffffffffffffffffffffff16815260200190815260200160002060008381526020019081526020016000209050600073ffffffffffffffffffffffffffffffffffffffff168160020160019054906101000a900473ffffffffffffffffffffffffffffffffffffffff1673ffffffffffffffffffffffffffffffffffffffff161161224057600080fd5b8060020160009054906101000a900460ff161561225c57600080fd5b60018160020160006101000a81548160ff021916908315150217905550600081600101549050600080905060008790508083101561229c57829150612457565b85600c015481111561243757600073ffffffffffffffffffffffffffffffffffffffff1686600b0160009054906101000a900473ffffffffffffffffffffffffffffffffffffffff1673ffffffffffffffffffffffffffffffffffffffff161415612364573386600b0160006101000a81548173ffffffffffffffffffffffffffffffffffffffff021916908373ffffffffffffffffffffffffffffffffffffffff1602179055508086600c0181905550856007015486600d01819055508083039150612432565b85600b0160009054906101000a900473ffffffffffffffffffffffffffffffffffffffff1673ffffffffffffffffffffffffffffffffffffffff166108fc87600c01549081150290604051600060405180830381858888f193505050501580156123d2573d6000803e3d6000fd5b5085600c015486600d01819055508086600c01819055503386600b0160006101000a81548173ffffffffffffffffffffffffffffffffffffffff021916908373ffffffffffffffffffffffffffffffffffffffff16021790555080830391505b612456565b85600d0154811115612451578086600d0181905550612455565b8291505b5b5b7fe1dc1b1a81fae3888ca5e8503053beaca3e7146e567c4d2ab34c7259baba98a8898685876001015486604051808681526020018581526020018481526020018381526020018281526020019550505050505060405180910390a16000821115612503573373ffffffffffffffffffffffffffffffffffffffff166108fc839081150290604051600060405180830381858888f19350505050158015612501573d6000803e3d6000fd5b505b505050505050505050565b82841061251a57600080fd5b60016000808282540192505081905550612532613547565b604051806101c0016040528060005481526020018a81526020018981526020018881526020018781526020018681526020018581526020018481526020016000600281111561257d57fe5b815260200183600181111561258e57fe5b600181111561259957fe5b815260200160008152602001600073ffffffffffffffffffffffffffffffffffffffff168152602001600081526020016000815250905080600260003373ffffffffffffffffffffffffffffffffffffffff1673ffffffffffffffffffffffffffffffffffffffff1681526020019081526020016000206000805481526020019081526020016000206000820151816000015560208201518160010190805190602001906126489291906135e2565b5060408201518160020190805190602001906126659291906135e2565b5060608201518160030190805190602001906126829291906135e2565b50608082015181600401908051906020019061269f9291906135e2565b5060a0820151816005015560c0820151816006015560e082015181600701556101008201518160080160006101000a81548160ff021916908360028111156126e357fe5b02179055506101208201518160080160016101000a81548160ff0219169083600181111561270d57fe5b0217905550610140820151816009015561016082015181600b0160006101000a81548173ffffffffffffffffffffffffffffffffffffffff021916908373ffffffffffffffffffffffffffffffffffffffff16021790555061018082015181600c01556101a082015181600d015590505033600360008054815260200190815260200160002060006101000a81548173ffffffffffffffffffffffffffffffffffffffff021916908373ffffffffffffffffffffffffffffffffffffffff16021790555082600160008282540192505081905550505050505050505050565b600080600080600060026000600360008b815260200190815260200160002060009054906101000a900473ffffffffffffffffffffffffffffffffffffffff1673ffffffffffffffffffffffffffffffffffffffff1673ffffffffffffffffffffffffffffffffffffffff16815260200190815260200160002060008981526020019081526020016000209050606087876040516020018083815260200182805190602001908083835b602083106128b95780518252602082019150602081019050602083039250612896565b6001836020036101000a038019825116818451168082178552505050505050905001925050506040516020818303038152906040529050600081805190602001209050612904613662565b83600a0160003373ffffffffffffffffffffffffffffffffffffffff1673ffffffffffffffffffffffffffffffffffffffff168152602001908152602001600020600083815260200190815260200160002060405180608001604052908160008201548152602001600182015481526020016002820160009054906101000a900460ff161515151581526020016002820160019054906101000a900473ffffffffffffffffffffffffffffffffffffffff1673ffffffffffffffffffffffffffffffffffffffff1673ffffffffffffffffffffffffffffffffffffffff16815250509050806000015181602001518260400151836060015197509750975097505050505093509350935093565b60005481565b60006004600083815260200190815260200160002060009054906101000a900473ffffffffffffffffffffffffffffffffffffffff1690508073ffffffffffffffffffffffffffffffffffffffff1663a97d1b10336040518263ffffffff1660e01b8152600401808273ffffffffffffffffffffffffffffffffffffffff1673ffffffffffffffffffffffffffffffffffffffff168152602001915050600060405180830381600087803b158015612ace57600080fd5b505af1158015612ae2573d6000803e3d6000fd5b5050505060008173ffffffffffffffffffffffffffffffffffffffff16311415612b1057612b0f82611952565b5b5050565b60008060008060006003600087815260200190815260200160002060009054906101000a900473ffffffffffffffffffffffffffffffffffffffff169050612b5a613547565b600260008373ffffffffffffffffffffffffffffffffffffffff1673ffffffffffffffffffffffffffffffffffffffff1681526020019081526020016000206000888152602001908152602001600020604051806101c001604052908160008201548152602001600182018054600181600116156101000203166002900480601f016020809104026020016040519081016040528092919081815260200182805460018160011615610100020316600290048015612c595780601f10612c2e57610100808354040283529160200191612c59565b820191906000526020600020905b815481529060010190602001808311612c3c57829003601f168201915b50505050508152602001600282018054600181600116156101000203166002900480601f016020809104026020016040519081016040528092919081815260200182805460018160011615610100020316600290048015612cfb5780601f10612cd057610100808354040283529160200191612cfb565b820191906000526020600020905b815481529060010190602001808311612cde57829003601f168201915b50505050508152602001600382018054600181600116156101000203166002900480601f016020809104026020016040519081016040528092919081815260200182805460018160011615610100020316600290048015612d9d5780601f10612d7257610100808354040283529160200191612d9d565b820191906000526020600020905b815481529060010190602001808311612d8057829003601f168201915b50505050508152602001600482018054600181600116156101000203166002900480601f016020809104026020016040519081016040528092919081815260200182805460018160011615610100020316600290048015612e3f5780601f10612e1457610100808354040283529160200191612e3f565b820191906000526020600020905b815481529060010190602001808311612e2257829003601f168201915b505050505081526020016005820154815260200160068201548152602001600782015481526020016008820160009054906101000a900460ff166002811115612e8457fe5b6002811115612e8f57fe5b81526020016008820160019054906101000a900460ff166001811115612eb157fe5b6001811115612ebc57fe5b815260200160098201548152602001600b820160009054906101000a900473ffffffffffffffffffffffffffffffffffffffff1673ffffffffffffffffffffffffffffffffffffffff1673ffffffffffffffffffffffffffffffffffffffff168152602001600c8201548152602001600d820154815250509050806101600151816101800151826101a00151836101400151955095509550955050509193509193565b60006003600083815260200190815260200160002060009054906101000a900473ffffffffffffffffffffffffffffffffffffffff1690506000600260008373ffffffffffffffffffffffffffffffffffffffff1673ffffffffffffffffffffffffffffffffffffffff16815260200190815260200160002060008481526020019081526020016000209050600081600b0160009054906101000a900473ffffffffffffffffffffffffffffffffffffffff169050600083905060003390508360060154421161302e57600080fd5b3373ffffffffffffffffffffffffffffffffffffffff168373ffffffffffffffffffffffffffffffffffffffff16141561306757600080fd5b3373ffffffffffffffffffffffffffffffffffffffff168273ffffffffffffffffffffffffffffffffffffffff1614156130a057600080fd5b600060028111156130ad57fe5b8460080160009054906101000a900460ff1660028111156130ca57fe5b146130d457600080fd5b60008460090154141561310c5760028460080160006101000a81548160ff0219169083600281111561310257fe5b0217905550613133565b60018460080160006101000a81548160ff0219169083600281111561312d57fe5b02179055505b600084600d0154848484604051613149906136a2565b808473ffffffffffffffffffffffffffffffffffffffff1673ffffffffffffffffffffffffffffffffffffffff1681526020018373ffffffffffffffffffffffffffffffffffffffff1673ffffffffffffffffffffffffffffffffffffffff1681526020018273ffffffffffffffffffffffffffffffffffffffff1673ffffffffffffffffffffffffffffffffffffffff16815260200193505050506040518091039082f080158015613200573d6000803e3d6000fd5b5090509050806004600089815260200190815260200160002060006101000a81548173ffffffffffffffffffffffffffffffffffffffff021916908373ffffffffffffffffffffffffffffffffffffffff160217905550600085600d015486600c01540390508473ffffffffffffffffffffffffffffffffffffffff166108fc829081150290604051600060405180830381858888f193505050501580156132ac573d6000803e3d6000fd5b505050505050505050565b6000600260006003600086815260200190815260200160002060009054906101000a900473ffffffffffffffffffffffffffffffffffffffff1673ffffffffffffffffffffffffffffffffffffffff1673ffffffffffffffffffffffffffffffffffffffff16815260200190815260200160002060008481526020019081526020016000209050806005015442101561334f57600080fd5b806006015442111561336057600080fd5b8060070154341161337057600080fd5b600073ffffffffffffffffffffffffffffffffffffffff1681600a0160003373ffffffffffffffffffffffffffffffffffffffff1673ffffffffffffffffffffffffffffffffffffffff168152602001908152602001600020600084815260200190815260200160002060020160019054906101000a900473ffffffffffffffffffffffffffffffffffffffff1673ffffffffffffffffffffffffffffffffffffffff161461341e57600080fd5b60405180608001604052808481526020013481526020016000151581526020013373ffffffffffffffffffffffffffffffffffffffff1681525081600a0160003373ffffffffffffffffffffffffffffffffffffffff1673ffffffffffffffffffffffffffffffffffffffff1681526020019081526020016000206000848152602001908152602001600020600082015181600001556020820151816001015560408201518160020160006101000a81548160ff02191690831515021790555060608201518160020160016101000a81548173ffffffffffffffffffffffffffffffffffffffff021916908373ffffffffffffffffffffffffffffffffffffffff1602179055509050508060090160008154809291906001019190505550505050565b60015481565b604051806101c0016040528060008152602001606081526020016060815260200160608152602001606081526020016000815260200160008152602001600081526020016000600281111561359857fe5b8152602001600060018111156135aa57fe5b815260200160008152602001600073ffffffffffffffffffffffffffffffffffffffff16815260200160008152602001600081525090565b828054600181600116156101000203166002900490600052602060002090601f016020900481019282601f1061362357805160ff1916838001178555613651565b82800160010185558215613651579182015b82811115613650578251825591602001919060010190613635565b5b50905061365e91906136af565b5090565b60405180608001604052806000815260200160008152602001600015158152602001600073ffffffffffffffffffffffffffffffffffffffff1681525090565b610e65806136d583390190565b6136d191905b808211156136cd5760008160009055506001016136b5565b5090565b9056fe6080604052604051610e65380380610e658339818101604052606081101561002657600080fd5b81019080805190602001909291908051906020019092919080519060200190929190505050826000806101000a81548173ffffffffffffffffffffffffffffffffffffffff021916908373ffffffffffffffffffffffffffffffffffffffff16021790555081600160006101000a81548173ffffffffffffffffffffffffffffffffffffffff021916908373ffffffffffffffffffffffffffffffffffffffff16021790555080600260006101000a81548173ffffffffffffffffffffffffffffffffffffffff021916908373ffffffffffffffffffffffffffffffffffffffff160217905550346003819055506000600460006101000a81548160ff0219169083151502179055507ffebb63368ef9ded0763235844c67570ecc200b5f5ca3c33430298bfaff8de8c4838383604051808473ffffffffffffffffffffffffffffffffffffffff1673ffffffffffffffffffffffffffffffffffffffff1681526020018373ffffffffffffffffffffffffffffffffffffffff1673ffffffffffffffffffffffffffffffffffffffff1681526020018273ffffffffffffffffffffffffffffffffffffffff1673ffffffffffffffffffffffffffffffffffffffff168152602001935050505060405180910390a1505050610c598061020c6000396000f3fe6080604052600436106100915760003560e01c8063aa8c217c11610059578063aa8c217c146101f7578063b8d08db214610222578063d1a52e301461024d578063f3d259041461027c578063fe25e00a1461035257610091565b806308551a53146100965780630bda4dbf146100ed57806358aad10b146101185780637150d8ae1461015c578063a97d1b10146101b3575b600080fd5b3480156100a257600080fd5b506100ab6103a9565b604051808273ffffffffffffffffffffffffffffffffffffffff1673ffffffffffffffffffffffffffffffffffffffff16815260200191505060405180910390f35b3480156100f957600080fd5b506101026103cf565b6040518082815260200191505060405180910390f35b61015a6004803603602081101561012e57600080fd5b81019080803573ffffffffffffffffffffffffffffffffffffffff1690602001909291905050506103d5565b005b34801561016857600080fd5b5061017161077b565b604051808273ffffffffffffffffffffffffffffffffffffffff1673ffffffffffffffffffffffffffffffffffffffff16815260200191505060405180910390f35b6101f5600480360360208110156101c957600080fd5b81019080803573ffffffffffffffffffffffffffffffffffffffff1690602001909291905050506107a0565b005b34801561020357600080fd5b5061020c610b44565b6040518082815260200191505060405180910390f35b34801561022e57600080fd5b50610237610b4a565b6040518082815260200191505060405180910390f35b34801561025957600080fd5b50610262610b50565b604051808215151515815260200191505060405180910390f35b34801561028857600080fd5b50610291610b63565b604051808773ffffffffffffffffffffffffffffffffffffffff1673ffffffffffffffffffffffffffffffffffffffff1681526020018673ffffffffffffffffffffffffffffffffffffffff1673ffffffffffffffffffffffffffffffffffffffff1681526020018573ffffffffffffffffffffffffffffffffffffffff1673ffffffffffffffffffffffffffffffffffffffff16815260200184151515158152602001838152602001828152602001965050505050505060405180910390f35b34801561035e57600080fd5b50610367610bfe565b604051808273ffffffffffffffffffffffffffffffffffffffff1673ffffffffffffffffffffffffffffffffffffffff16815260200191505060405180910390f35b600160009054906101000a900473ffffffffffffffffffffffffffffffffffffffff1681565b60085481565b600460009054906101000a900460ff16156103ef57600080fd5b6000809054906101000a900473ffffffffffffffffffffffffffffffffffffffff1673ffffffffffffffffffffffffffffffffffffffff168173ffffffffffffffffffffffffffffffffffffffff1614806104975750600160009054906101000a900473ffffffffffffffffffffffffffffffffffffffff1673ffffffffffffffffffffffffffffffffffffffff168173ffffffffffffffffffffffffffffffffffffffff16145b806104ef5750600260009054906101000a900473ffffffffffffffffffffffffffffffffffffffff1673ffffffffffffffffffffffffffffffffffffffff168173ffffffffffffffffffffffffffffffffffffffff16145b801561054c575060011515600560008373ffffffffffffffffffffffffffffffffffffffff1673ffffffffffffffffffffffffffffffffffffffff16815260200190815260200160002060009054906101000a900460ff16151514155b15610657576001600560008373ffffffffffffffffffffffffffffffffffffffff1673ffffffffffffffffffffffffffffffffffffffff16815260200190815260200160002060006101000a81548160ff02191690831515021790555060016006600082825401925050819055507f2af39dd3b8a0a0c3d434feb2ea105f9e48fb5471fca8e3e090e3129077055a038160405180806020018373ffffffffffffffffffffffffffffffffffffffff1673ffffffffffffffffffffffffffffffffffffffff168152602001828103825260078152602001807f72656c65617365000000000000000000000000000000000000000000000000008152506020019250505060405180910390a15b6002600654141561077857600160009054906101000a900473ffffffffffffffffffffffffffffffffffffffff1673ffffffffffffffffffffffffffffffffffffffff166108fc6003549081150290604051600060405180830381858888f193505050501580156106cc573d6000803e3d6000fd5b506001600460006101000a81548160ff0219169083151502179055507ffc0502d1f5193ed5555e5ea7b222c8823fb7184f8194a01ed73d55a8e3c300e1600354600160009054906101000a900473ffffffffffffffffffffffffffffffffffffffff16604051808381526020018273ffffffffffffffffffffffffffffffffffffffff1673ffffffffffffffffffffffffffffffffffffffff1681526020019250505060405180910390a15b50565b6000809054906101000a900473ffffffffffffffffffffffffffffffffffffffff1681565b600460009054906101000a900460ff16156107ba57600080fd5b6000809054906101000a900473ffffffffffffffffffffffffffffffffffffffff1673ffffffffffffffffffffffffffffffffffffffff168173ffffffffffffffffffffffffffffffffffffffff1614806108625750600160009054906101000a900473ffffffffffffffffffffffffffffffffffffffff1673ffffffffffffffffffffffffffffffffffffffff168173ffffffffffffffffffffffffffffffffffffffff16145b806108ba5750600260009054906101000a900473ffffffffffffffffffffffffffffffffffffffff1673ffffffffffffffffffffffffffffffffffffffff168173ffffffffffffffffffffffffffffffffffffffff16145b8015610917575060011515600760008373ffffffffffffffffffffffffffffffffffffffff1673ffffffffffffffffffffffffffffffffffffffff16815260200190815260200160002060009054906101000a900460ff16151514155b15610a22576001600760008373ffffffffffffffffffffffffffffffffffffffff1673ffffffffffffffffffffffffffffffffffffffff16815260200190815260200160002060006101000a81548160ff02191690831515021790555060016008600082825401925050819055507f2af39dd3b8a0a0c3d434feb2ea105f9e48fb5471fca8e3e090e3129077055a038160405180806020018373ffffffffffffffffffffffffffffffffffffffff1673ffffffffffffffffffffffffffffffffffffffff168152602001828103825260068152602001807f726566756e6400000000000000000000000000000000000000000000000000008152506020019250505060405180910390a15b60026008541415610b41576000809054906101000a900473ffffffffffffffffffffffffffffffffffffffff1673ffffffffffffffffffffffffffffffffffffffff166108fc6003549081150290604051600060405180830381858888f19350505050158015610a96573d6000803e3d6000fd5b506001600460006101000a81548160ff0219169083151502179055507ffc0502d1f5193ed5555e5ea7b222c8823fb7184f8194a01ed73d55a8e3c300e16003546000809054906101000a900473ffffffffffffffffffffffffffffffffffffffff16604051808381526020018273ffffffffffffffffffffffffffffffffffffffff1673ffffffffffffffffffffffffffffffffffffffff1681526020019250505060405180910390a15b50565b60035481565b60065481565b600460009054906101000a900460ff1681565b6000806000806000806000809054906101000a900473ffffffffffffffffffffffffffffffffffffffff16600160009054906101000a900473ffffffffffffffffffffffffffffffffffffffff16600260009054906101000a900473ffffffffffffffffffffffffffffffffffffffff16600460009054906101000a900460ff16600654600854955095509550955095509550909192939495565b600260009054906101000a900473ffffffffffffffffffffffffffffffffffffffff168156fea265627a7a72315820fe2cadcaf51807ef8215bebfcb7e92547bba2a499dd165b4a0c2d4969a91307864736f6c63430005100032a265627a7a72315820a845760d9b94fa544ccbe54d110c419e2808f62c14782f4abe137e8c61e7ca5364736f6c63430005100032",
  "source": "pragma solidity ^0.5.16;\n\nimport './Escrow.sol';\ncontract EcommerceStore {\n  uint public productIndex;\n  uint public totalDeposit;   //\n  constructor() public {\n    productIndex = 0;\n    totalDeposit = 0;\n  }\n  //1.  \n  // 2. \n  // 3. id\n  struct Product {\n    //\n    uint id; //id:id\n    string name; //\n    string category; //\n    string imageLink; //hash\n    string descLink; //hash\n    // \n    // \n    // \n    // Opensoldunsold\n    // \n    uint auctionStartTime; //\n    uint auctionEndTime; // \n    uint startPrice; // \n    ProductStatus status; //\n    ProductCondition condition; // \n    //\n    uint totalBids; // \n    //\n    //Byes32\n    mapping(address => mapping(bytes32 => Bid)) bids;\n    //\n    address highestBidder; // \n    uint highestBid; // \n    uint secondHighestBid; // \n  }\n\n  enum ProductStatus {Open,Sold,Unsold}\n  enum ProductCondition {New,Used}\n\n  // stores\n  mapping(address => mapping(uint => Product)) stores;\n  //\n  mapping(uint => address) productIdToOwner;\n\n  function hello() public pure returns (string memory){\n    return \"hello world\";\n  }\n\n  /*  */\n  function addProductToStore(string memory _name, string memory _category, string memory _imageLink, string memory _descLink, uint _startTime, uint _endTime, uint _startPrice, uint condition) payable public {\n    require(_startTime < _endTime);\n    productIndex += 1;\n    Product memory product = Product({\n      id : productIndex,\n      name : _name,\n      category : _category,\n      imageLink : _imageLink,\n      descLink : _descLink,\n      startPrice : _startPrice,\n      auctionStartTime : _startTime,\n      auctionEndTime : _endTime,\n      status : ProductStatus.Open,\n      condition : ProductCondition(condition),\n      highestBid : 0,\n      highestBidder : address(0),\n      secondHighestBid : 0,\n      totalBids : 0\n    });\n    stores[msg.sender][productIndex] = product;\n    productIdToOwner[productIndex] = msg.sender;\n    totalDeposit += _startPrice;\n  }\n\n  //ID\n  function getAccountOfId(uint _productId) public view returns(address){\n    return productIdToOwner[_productId];\n  }\n\n  function testHash(uint value, string memory secret) public pure returns (bytes32) {\n      bytes memory bytesInfo = abi.encodePacked(value, secret);\n      bytes32 bytesHash = sha256(bytesInfo);\n      return bytesHash;\n  }\n\n  // \n    // \t1. ID\n    // \t2. \n    // \t3. \n    // \t4. \n  struct Bid {\n    uint productId;\n    uint price;  //msg.value\n    bool isRevealed;\n    address bidder;\n  }\n\n  // \n  //\n  // 1. id\n  // 2. Productbids\n  // mapping(address => mapping(bytes32 => Bid)) bids;\n  function bid(uint _productId, bytes32 _bytesHash) payable public {\n    Product storage product = stores[productIdToOwner[_productId]][_productId];\n    require(now >= product.auctionStartTime);\n    require(now <= product.auctionEndTime);\n    require(msg.value > product.startPrice);\n    require(product.bids[msg.sender][_bytesHash].bidder == address(0));\n    product.bids[msg.sender][_bytesHash] = Bid(_productId, msg.value, false, msg.sender);\n    product.totalBids ++;\n  }\n\n  //\n  function getBidById(uint _productId, uint _idealPrice, string memory _secret) public view returns (uint, uint, bool, address) {\n    Product storage product = stores[productIdToOwner[_productId]][_productId];\n    bytes memory bytesInfo = abi.encodePacked(_idealPrice, _secret);\n    bytes32 bytesHash = keccak256(bytesInfo);\n    Bid memory bidLocal = product.bids[msg.sender][bytesHash];\n    return (bidLocal.productId, bidLocal.price, bidLocal.isRevealed, bidLocal.bidder);\n  }\n\n  event revealEvent(uint productid, bytes32 bidId, uint idealPrice, uint price, uint refund);\n\n  function numberOfItems() view public returns (uint){\n    return productIndex;\n  }\n\n  event NewProduct(uint _productId, string _name, string _category, string _imageLink, string _descLink,\n    uint _auctionStartTime, uint _auctionEndTime, uint _startPrice, uint _productCondition);\n\n  function revealBid(uint _productId, uint _idealPrice, string memory _secret) public {\n    Product storage product = stores[productIdToOwner[_productId]][_productId];\n    require(now > product.auctionEndTime);\n    bytes32 bidId = sha256(abi.encodePacked(_idealPrice, _secret));\n    //, storage\n    Bid storage currBid = product.bids[msg.sender][bidId];\n    require(currBid.bidder > address(0)); //0xf55 uint160\n    require(!currBid.isRevealed);\n    //\n    currBid.isRevealed = true;\n    //bid\n    uint confusePrice = currBid.price;\n    uint refund = 0; // \n    uint idealPrice = _idealPrice;\n    if (confusePrice < idealPrice) {\n      //1\n      refund = confusePrice;\n    } else {\n      if (idealPrice > product.highestBid) {\n        if (product.highestBidder == address(0)) {\n          //\n          //2\n          product.highestBidder = msg.sender;\n          product.highestBid = idealPrice;\n          product.secondHighestBid = product.startPrice;\n          refund = confusePrice - idealPrice;\n        } else {\n          //3\n          address(uint160(product.highestBidder)).transfer(product.highestBid);\n          product.secondHighestBid = product.highestBid;\n          product.highestBid = idealPrice;\n          product.highestBidder = msg.sender;\n          refund = confusePrice - idealPrice;\n        }\n      } else {\n        //4\n        if (idealPrice > product.secondHighestBid) {\n          //4\n          product.secondHighestBid = idealPrice;\n        } else {\n          //5\n          refund = confusePrice;\n        }\n      }\n    }\n    emit revealEvent(_productId, bidId, confusePrice, currBid.price, refund);\n    if (refund > 0) {\n      msg.sender.transfer(refund);\n    }\n  }\n\n  //ID\n  function getHighestBidInfo(uint _productId) view public returns(address, uint, uint, uint) {\n    address owner = productIdToOwner[_productId];\n    Product memory product = stores[owner][_productId];\n    return (product.highestBidder, product.highestBid, product.secondHighestBid, product.totalBids);\n  }\n\n  /* ID */\n  function getProductById(uint _productId) view public returns(uint, string memory , string memory , string memory , string memory , uint, uint, uint, uint, address,uint) {\n    address owner = productIdToOwner[_productId];\n    Product memory product = stores[owner][_productId];\n    return (product.id, product.name, product.category, product.imageLink, product.descLink, product.auctionStartTime, product.auctionEndTime, product.startPrice, uint(product.status), product.highestBidder, product.highestBid);\n  }\n\n  //keyidvalue\n  mapping(uint => address) public productToEscrow;\n\n  //\n  function totalBids(uint _productId) view public returns(uint) {\n    address owner = productIdToOwner[_productId];\n    Product memory product = stores[owner][_productId];\n    return product.totalBids;\n  }\n\n //uint\n  function stringToUint(string memory s) pure private returns(uint) {\n    bytes memory b = bytes(s);\n    uint result = 0;\n    for (uint i = 0; i < b.length; i++) {\n      if (uint8(b[i]) >= 48 && uint8(b[i]) <= 57) {\n        result = result * 10 + (uint8(b[i]) - 48);\n      }\n    }\n    return result;\n  }\n\n  //\n  function finalizeAuction(uint _productId) public {\n    address owner = productIdToOwner[_productId];\n    Product storage product = stores[owner][_productId];\n    address buyer = product.highestBidder;\n    address seller = owner;\n    address arbiter = msg.sender;\n    require(now > product.auctionEndTime);\n    require(buyer != msg.sender);\n    require(seller != msg.sender);\n    require(product.status == ProductStatus.Open);\n    if (product.totalBids == 0) {\n      product.status = ProductStatus.Unsold;\n    } else {\n      product.status = ProductStatus.Sold;\n    }\n    Escrow escrow = (new Escrow).value(product.secondHighestBid)(buyer, seller, arbiter);\n    productToEscrow[_productId] = address(escrow);\n    // 30- 20 = 10  3020\n    uint refund = product.highestBid - product.secondHighestBid;\n    address(uint160(buyer)).transfer(refund);\n  }\n\n  function escrowAddressForProduct(uint _productId) view public returns(address) {\n    return productToEscrow[_productId];\n  }\n\n  function getEscrowInfo(uint _productId) view public returns(address, address, address, bool, uint, uint) {\n    address escrow = productToEscrow[_productId];\n    return Escrow(escrow).escrowInfo();\n  }\n\n  function releaseAmountToSeller(uint _productId) payable public {\n    address escrow = productToEscrow[_productId];\n    Escrow(escrow).releaseAmountToSeller(msg.sender);\n    if(escrow.balance == 0){\n      refundDeposit(_productId);\n    }\n  }\n\n  function refundAmountToBuyer(uint _productId) payable public {\n    address escrow = productToEscrow[_productId];\n    Escrow(escrow).refundAmountToBuyer(msg.sender);\n    if(escrow.balance == 0){\n      refundDeposit(_productId);\n    }\n  }\n\n  function refundDeposit(uint _productId) payable public {\n    address seller = productIdToOwner[_productId];\n    Product memory product = stores[seller][_productId];\n    totalDeposit -= product.startPrice;\n    address(uint160(seller)).transfer(product.startPrice);\n  }\n}",
  "sourcePath": "/home/chrisyy/Desktop/sell/contracts/EcommerceStore.sol",
  "compiler": {
    "name": "solc",
    "version": "0.5.16+commit.9c3226ce.Emscripten.clang"
  },
  "schemaVersion": "3.4.7",
  "updatedAt": "2022-05-03T11:09:27.143Z",
  "networkType": "ethereum",
  "devdoc": {
    "methods": {}
  },
  "userdoc": {
    "methods": {}
  }
}